:030000000231E4E6
:0C31E400787FE4F6D8FD75812302322BC1
:1035EE00C204E49005BFF09005CBF0C203C207D22F
:1035FE0009C205C202C210C200D20DC201C20FC260
:10360E00029005C7120516000000009005D874320E
:10361E00F0E49005D4F0C208900603F0A3F09006F3
:10362E0000F0A3F09005D9F0A3F09005CF12051687
:10363E0000000000300905300302C2A8123E9E9021
:0B364E0005D5EBF0A3EAF0A3E9F022A1
:10372B00C291D20D300439300F13C20F7D587C0279
:10373B007F0C1236C39005E0EEF0A3EFF0300E13C2
:10374B00C20E7F81123C589005C6E075F00AA4FFAB
:10375B00123C58300CCEC20C121FAB123A2D80C447
:10376B00C2AF300712C207C20D121E199211123CC2
:10377B00F4123A2D123E04D20D1205A0123A2DC2AC
:06378B0089C28BD2AF22BF
:102EE500C205C291300953C2A830103EC210D20D9E
:102EF50030002CC2007E017FB87D007B017A047909
:102F0500031205749005C712051600000000C208DB
:102F1500E4900603F0A3F0900600F0A3F0800D12F4
:102F25000D6E1205A0122A6D8005C20D1205A012A4
:102F35003A2D20034AC289D2A82220094220043F03
:102F4500300CF7C2A8C20C301027C210120D6ED279
:102F55000D9005DBE0FF9005CEE0B507081205A052
:102F6500122A6D80119005C7120516000000008019
:102F750002C20D1205A0123A2DC289D2A880BB2229
:103AB5009005D3E0FF3395E0FEEF64024E701DC222
:103AC500A8D205C20CC210C209120D6ED20D120584
:103AD500A0122A6D123A2DC289D2A822D20D120D3A
:0B3AE5006E1205A0122A6D123A2D226D
:103791004393505394AF5393FD43940253B1E35376
:1037A100B2E3539507539607C288D2B8D2A8D28AFA
:1037B100C2BAD2AA538E7F5389F0758A46758C247A
:1037C100C28DD2A9D2AF121C5A1235EE1230217F0E
:1037D10006123EA51205A0123A2DC291123DBC302F
:1037E100040512372B80F3300505122EE580EB120C
:0437F1003AB580E67F
:103D5700123E46A2B230B401B35004D215800AA273
:0D3D6700B230B401B34005C2151227A022EE
:03000300023904BB
:10390400C0E0C0F0C083C082C0D075D000C000C089
:1039140001C002C003C004C005C006C007123E4671
:1039240020B304D2018002C201123D57D205D20C49
:10393400C28BC289D007D006D005D004D003D002F0
:0F394400D001D000D0D0D082D083D0F0D0E032EC
:03001300022CDFDD
:102CDF00C0E0C0F0C083C082C0D075D000C000C0BB
:102CEF0001C002C003C004C005C006C007123DF6F4
:102CFF0020B372C201123D8D503AB20430040ED28D
:102D0F000CD20FC28DD28CC289D2A88023C28CC2A2
:102D1F008D9005C712051600000000C2089006032B
:102D2F00E4F0A3F0900600F0A3F0D20CD210C20092
:102D3F00D205803120012E123D17500F200426B2EC
:102D4F0003D207D205D20CC200801A200417C2A8E2
:102D5F00B209300906D210D2008004D20CD210D2A0
:102D6F0005C289C28BC28BD007D006D005D004D044
:102D7F0003D002D001D000D0D0D082D083D0F0D0F9
:022D8F00E03230
:03000B00023CA80C
:083CA800C0E0C083C082C0D05F
:103CB000900A13E004F0C39428748094804006E4D2
:053CC000F0D20FD20C50
:093CC500D0D0D082D083D0E032CF
:0A3E460000007F127E85DEFEDFFC27
:013E5000224F
:093E5C00007FB07E50DEFEDFFCA9
:013E6500223A
:0D3DF600007F077EDA7D37DDFEDEFCDFFAA0
:013E0300229C
:103D8D0000007F6E7E947DA620B303300102C32216
:073D9D00DDFEDEF4DFF2D3CE
:013DA40022FC
:103D1700C2A8123E5C7F2A7E187D5C20B306C2894A
:0F3D2700D2A8D322DDFEDEF3DFF1C289D2A8C31A
:013D3600226A
:0D3E0400007F897EF97D91DDFEDEFCDFFA96
:013E1100228E
:040006007F19DFFE81
:01000A0022D3
:0C3E20007F037EBD7D43DDFEDEFCDFFA8B
:013E2C002273
:0D3E1200007F027E187D7CDDFEDEFCDFFA05
:013E1F002280
:093E6600007F8C7E3BDEFEDFFCD8
:013E6F002230
:083E7A007F467E1ADEFEDFFC2C
:013E8200221D
:083E83007F1C7E06DEFEDFFC61
:013E8B002214
:083E8C007F0DE4FEDEFEDFFC09
:013E9400220B
:0A3E510000007F067EFCDEFEDFFCB1
:013E5B002244
:093E7000007F027EC7DEFEDFFCCC
:013E79002226
:04000E007FA0DFFEF2
:0100120022CB
:043EAB007F2CDFFE8B
:013EAF0022F0
:10365900EFB40C005056903666F828287302368A63
:1036690002368C02368E0236900236920236940267
:1036790036960236980236A00236A80236B00236CD
:10368900B0800C800A800880068004800280009047
:103699000A0B740FF08015900A0B740AF0800D90D4
:1036A9000A0B7405F08005E4900A0BF0900A0BE010
:0A36B9004420F5DE75BC80023E5C83
:053CCE00900988E0FFF1
:103CD300E4F5BDF5BE53BCF0EF42BC43BC4000006D
:103CE300E5BC30E5FB53BCDFAFBDEFFEADBEEDFF82
:013CF30022AE
:063E9E007BFF7AFD79F7BD
:013EA40022FB
:0539E600900A0AEFF059
:1039EB00E4FF123659900A0AE0FF123CD3E0FF12B3
:1039FB003CD3E4FBFAFCECC394107480948050111C
:103A0B00900A0AE0FF123CD3EF2BFBEE3AFA0C8044
:103A1B00E5EAC4F854F0C868FAEBC4540F48AE0298
:013A2B00FF9B
:013A2C002277
:0B36C300900988EFF0A3ECF0A3EDF0FD
:1036CE00E4FF1236597F0F1239E690098BEEF0A304
:1036DE00EFF0900988E0FF1239E6123E9E12035871
:1036EE00FDACF0120547A804A905AA06AB07900980
:1036FE0089E0FEA3E0FFE4FCFD1203BBC006C00799
:10370E0090098BE0FEA3E0FBAA06E4F9F8D007D0FF
:0D371E0006120446E47B64FAF9F802044642
:0538B100900989E0FF11
:1038B600EFB40B0050479038C3F82828730238E459
:1038C6000238E70238EA0238ED0238F00238F3022D
:1038D60038F60238F90238FC0238FF023902023E95
:1038E60020023E12023E66023E7A023E83023E8C71
:0E38F600023E51023E7002000E023EAB002266
:0815E000900988EFF0A3EDF083
:1015E800C2023005030218547E017FB87D007B01DA
:1015F8007A0779D01205747E007F7E7D007B017AA0
:1016080009798C1205747F0F1239E69005C0EEF047
:10161800FCA3EFF0FD9005CCE0FEA3E0FF9005D51C
:10162800E0FBA3E0FAA3E0F9900A0FECF0A3EDF0D9
:101638009005C4E0FDA3E0900A11CDF0A3EDF012EF
:1016480034369005C2EEF0A3EFF0900989E0FF125E
:101658003659123CCEE0FF123CD3A3E0640B703E37
:10166800D291A3F090098AE0C394DC7480948050EE
:1016780028300503021854123CCE90098AE075F010
:1016880002A424D0F582E5F03407F583EEF0A3EF49
:10169800F090098AE004F080CBC2910218529005BC
:1016A800D3E0700302180FC29190098B7401F09077
:1016B800098BE0D3943E74809480502B300503024C
:1016C80018541200061238B1123CCE90098BE0254E
:1016D800E0248CF582E43409F583EEF0A3EFF09072
:1016E800098BE004F080C8D29130050302185490A9
:1016F800098BE0D3943E7480948040127401F0907A
:101708000A08E0FFA3E090098CCFF0A3EFF01238AD
:10171800B1123CCE90098BE0FD25E0248CF582E4E3
:101728003409F583EEF0A3EFF0ED25E0248AF58285
:10173800E43409F583E0FEA3E0FFED25E0248CF511
:1017480082E43409F583E0FCA3E0FD9005C2E0FAE9
:10175800A3E0FBA20A92141234C15004C29180097A
:1017680090098BE004F00216F1E490098AF09009E0
:101778008AE0C3949E74809480502E30050302182A
:10178800541200061238B1123CCE90098AE075F066
:1017980002A4244CF582E5F03408F583EEF0A3EFBB
:1017A800F090098AE004F080C5E490098AF0900975
:1017B8008AE0FFC3943E748094804003021852303C
:1017C800050302185490098BE004F0D3943E74800A
:1017D800948040037401F090098BE025E0248CF597
:1017E80082E43409F583E0FCA3E0FD75F002EFA480
:1017F80024D0F582E5F03407F583ECF0A3EDF09002
:10180800098AE004F080A7D291E490098AF090094F
:101818008AE0C394DC74809480502D300502802CBB
:10182800123CCE90098AE075F002A424D0F582E536
:10183800F03407F583EEF0A3EFF01200061238B18A
:1018480090098AE004F080C6C291D2027B017A072F
:0218580079D045
:01185A00226B
:103B28009005D3E060189005CEE0FF3395E0FED312
:103B3800EF940AEE64809480401B740AF02290058A
:103B4800CEE0FF3395E0FED3EF940BEE64809480D3
:063B58004003740BF02293
:103D37003016099005CEE004F0023B289005CEE04E
:103D470014F0E03395E0C3648094805002E4F022DD
:10338200301646C39005CDE094889005CCE0648069
:103392009493400EA3E024F4F09005CCE03401F0C5
:1033A200800E9005CDE02464F09005CCE03400F06E
:1033B200D39005CDE094309005CCE0648094F54044
:1033C200447475F0A37430F022D39005CDE0948854
:1033D2009005CCE064809493500EA3E0249CF0907E
:1033E20005CCE034FFF0800E9005CDE0240CF09087
:1033F20005CCE034FEF0C39005CCE06480948050AC
:0634020004E4F0A3F02237
:103953003016259005C5E004F070069005C4E00418
:10396300F0D39005C5E094EE9005C4E0940240299D
:103973007402F0A374EEF0229005C5E024FFF090EA
:1039830005C4E034FFF0C3A3E094329005C4E0948F
:0A399300005006E4F0A37432F022A5
:033EBA00B206222B
:103B5E0030161A9005D3E004F0E0FF3395E0FED363
:103B6E00EF9402EE648094804017E4F0229005D327
:103B7E00E014F0E03395E0C3648094805003740247
:023B8E00F02223
:1037F50030162E9005D4E014F09005D8E0FFFD7C3E
:10380500009005D4E0FB3395E0FAEB2DFDEC3AFC96
:10381500C3ED9432EC648094805032C374329FF0CF
:10382500229005D4E004F09005D8E0FFFD7C0090DF
:1038350005D4E0FB3395E0FAEB2DFDEC3AFCD3ED36
:0E38450094A9EC64809480400474A99FF02242
:103B900030161A9005CBE004F0E0FF3395E0FED339
:103BA000EF9404EE648094804017E4F0229005CBFB
:103BB000E014F0E03395E0C3648094805003740413
:023BC000F022F1
:103BC20030161A9005BFE004F0E0FF3395E0FED313
:103BD200EF9402EE648094804017E4F0229005BFD7
:103BE200E014F0E03395E0C36480948050037402E3
:023BF200F022BF
:1030BB0030164BD39005BEE094E89005BDE06480DC
:1030CB009483500EA3E0249CF09005BDE034FFF0F8
:1030DB00800E9005BEE0240CF09005BDE034FEF0B0
:1030EB009005BBE0FEA3E0FFD39005BEE09FEE642E
:1030FB0080F89005BDE0648098504AD20B22C20B39
:10310B00C39005BEE094E89005BDE06480948340D5
:10311B000EA3E024F4F09005BDE03401F0800E9096
:10312B0005BEE02464F09005BDE03400F0D39005BB
:10313B00BEE094309005BDE0648094F54007747553
:06314B00F0A37430F02235
:10327000C20B3016419005BEE0249CF09005BDE0E5
:1032800034FFF09005BCE0249CF09005BBE034FFD7
:10329000F0C3A3E094649005BBE064809480505830
:1032A0009005BEE02464F09005BDE03400F0E490A9
:1032B00005BBF0A3F0229005BEE02464F09005BDAC
:1032C000E03400F09005BCE02464F09005BBE034ED
:1032D00000F0D39005BEE094309005BDE06480948A
:1032E000F540157475F0A37430F09005BCE0249C93
:0932F000F09005BBE034FFF02270
:103C25003016159005C6E004F0E0D394197480941D
:103C35008040187419F080139005C6E014F0E0C3B5
:0E3C450094017480948050037401F0D20E221A
:1027A000300121300407A2159216023BC230030A01
:1027B000A2159216123270D21022A2159216123B56
:1027C00090C200223004319005BFE0FF3395E0FE57
:1027D000EF4E7005123EBA801CEF64014E7009A2E4
:1027E000159216123953800DEF64024E7007A21530
:1027F0009216123C25D2072230030AA21592161215
:1028000037F5D210229005CBE0F9FB3395E0FAEBD7
:102810004A701EA2159216123D37D210D200E490D3
:1028200005D9F0A3F09005CF120516000000008036
:1028300034EB64014A700DA21592161230BBD2100F
:10284000C2008021E9FF3395E0FEEF64024E70097B
:10285000A21592161233828008EF64034E7006B2FE
:102860000AC210C2009005CBE0FF3395E0FEEF6492
:10287000044E701FA2159216123B5E123B28D21016
:10288000D200E49005D9F0A3F09005CF1205160010
:06289000000000D2072247
:102693009005C4E0FEA3E0FFD394EEEE940250094C
:1026A300C3EF9432EE9400500A9005C47402F0A371
:1026B3007458F09005CEE0FF3395E0FED3EF940B12
:1026C300EE648094805008C3EE648094805005E4E7
:1026D3009005CEF09005BDE0FEA3E0D39430EE6408
:1026E3008094F55008C3EE648094805007E490050D
:1026F300BDF0A3F09005BBE0FEA3E0D39430EE64FD
:102703008094F55008C3EE648094805007E49005EC
:10271300BBF0A3F09005BBE0FEA3E0FFD39005BEA2
:10272300E09FEE6480F89005BDE06480985007EE6A
:10273300F0A3EFF0D20B9005CCE0FEA3E0D39430EE
:10274300EE648094F55008C3EE64809480500A9040
:1027530005CC7407F0A374D0F09005D3E0FF339554
:10276300E0FED3EF9402EE648094805008C3EE64DD
:102773008094805005E49005D3F09005C6E0FF7E79
:1027830000D3941974809480500AC3EF9401748029
:0D279300948050069005C6740AF0023B28A1
:101E19001226939009977401F0A37409F0A37488AA
:101E2900F09005C4E0FF900997E0FBA3E475F00189
:101E3900120342A9F0FAEF1202B39005C4A3E0FF1E
:101E4900900997E0FBA3E475F001120342A9F0FAA7
:101E5900EF1202B3A206E433FF900997E0FBA3E473
:101E690075F001120342A9F0FAEF1202B39005CE00
:101E7900E0FF900997E0FBA3E475F001120342A982
:101E8900F0FAEF1202B3A20BE433FF900997E0FBDB
:101E9900A3E475F001120342A9F0FAEF1202B3901C
:101EA90005BDE0FF900997E0FBA3E475F00112037B
:101EB90042A9F0FAEF1202B39005BDA3E0FF900921
:101EC90097E0FBA3E475F001120342A9F0FAEF12BF
:101ED90002B39005BBE0FF900997E0FBA3E475F01E
:101EE90001120342A9F0FAEF1202B39005BBA3E075
:101EF900FF900997E0FBA3E475F001120342A9F0F2
:101F0900FAEF1202B39005CCE0FF900997E0FBA32A
:101F1900E475F001120342A9F0FAEF1202B3900539
:101F2900CCA3E0FF900997E0FBA3E475F00112034D
:101F390042A9F0FAEF1202B39005D3E0FF90099796
:101F4900E0FBA3E475F001120342A9F0FAEF1202D3
:101F5900B3A20AE433FF900997E0FBA3E475F0010B
:101F6900120342A9F0FAEF1202B3A203E433FF907D
:101F79000997E0FBA3E475F001120342A9F0FAEF17
:101F89001202B39005C6E0FF900997E0FBA3E0FABF
:101F9900A3E0F9EF1202B37B017A0979887D0F0278
:021FA9002B56B5
:101C5A009009977401F0A37409F0A37488F07B01CA
:101C6A007A09F97D0F123BF4900997E0FBA3E4751A
:101C7A00F001120342A9F0FA12026DFF9005C4E4C2
:101C8A00F0A3EFF0E0F8E4F0E89005C4F0900997CB
:101C9A00E0FBA3E475F001120342A9F0FA12026D07
:101CAA00FF9005C4E0F0A3E04FF0900997E0FBA392
:101CBA00E475F001120342A9F0FA12026D24FF92B0
:101CCA0006900997E0FBA3E475F001120342A9F01C
:101CDA00FA12026D9005CEF0900997E0FBA3E47525
:101CEA00F001120342A9F0FA12026D24FF920B903E
:101CFA000997E0FBA3E475F001120342A9F0FA1276
:101D0A00026DFF9005BDE4F0A3EFF0E0F8E4F0E81F
:101D1A009005BDF0900997E0FBA3E475F00112036A
:101D2A0042A9F0FA12026DFF9005BDE0F0A3E04F60
:101D3A00F0900997E0FBA3E475F001120342A9F0C1
:101D4A00FA12026DFF9005BBE4F0A3EFF0E0F8E4AD
:101D5A00F0E89005BBF0900997E0FBA3E475F00169
:101D6A00120342A9F0FA12026DFF9005BBE0F0A33C
:101D7A00E04FF0900997E0FBA3E475F001120342EB
:101D8A00A9F0FA12026DFF9005CCE4F0A3EFF0E09F
:101D9A00F8E4F0E89005CCF0900997E0FBA3E4752D
:101DAA00F001120342A9F0FA12026DFF9005CCE08D
:101DBA00F0A3E04FF0900997E0FBA3E475F001125D
:101DCA000342A9F0FA12026D9005D3F0900997E048
:101DDA00FBA3E475F001120342A9F0FA12026D2482
:101DEA00FF920A900997E0FBA3E475F001120342FF
:101DFA00A9F0FA12026D24FF9203900997E0FBA35F
:0F1E0A00E0FAA3E0F912026D9005C6F0022693EC
:101045000000000000000000005F00000000070035
:10105500070000147F147F1400242A7F2A1203231B
:1010650010080462003649562050000000070000B1
:1010750000001C22410000000041221C0022147FB8
:1010850014220008083E080800000040300000084F
:1010950008080808000000400000002010080402AD
:1010A500003E5149453E0000427F400000625149E3
:1010B5004946002141494D33001814127F1000277D
:1010C50045454539003C4A49493100017109050347
:1010D50000364949493600464949291E0000001491
:1010E50000000000403400000008142241000014F4
:1010F50014141414000041221408000201590502B9
:10110500003E415D594E007C1211127C007F494919
:101115004936003E41414122007F4141413E007F29
:1011250049494941007F09090901003E4141517181
:10113500007F0808087F0000417F410000204040F3
:10114500403F007F08142241007F40404040007F1F
:10115500020C027F007F0408107F003E4141413EA2
:10116500007F09090906003E4151215E007F0919EA
:1011750029460026494949320001017F0101003F06
:101185004040403F001F2040201F007F2018207F47
:1011950000631408146300030478040300615149D3
:1011A5004543007F7F414141000204081020004172
:1011B50041417F7F00100804081080808080808076
:1011C500000001020400002054545478007F444478
:1011D500443800384444444400384444447F00388B
:1011E5005454545800087E0909020018A4A4A47890
:1011F500007F040404780000447D400000408084A2
:101205007D00007F101028440000417F4000007CD5
:101215000438047C007C04040478003844444438D1
:1012250000FC444444380038444444FC007C080431
:1012350004040048545454240000043F4444003C32
:101245004040207C001C2040201C007C4030407C1D
:10125500004428102844001CA0A0A07C004464542D
:101265004C440406FFFF06042060FFFF6020183C85
:101275007EFF0000202024242424BF642434282455
:1012850022202000100804023F45444442424241C6
:1012950078000000082848890E8878080800F800BA
:1012A50000FF0000402010090619600000000F40F3
:1012B500807F000080642C342424EC322222322EDC
:1012C50023A260000041219189874D552525554D63
:1012D500818080001010FF109000FC041625044446
:1012E5007C00000042827F01001C11111F11115D5D
:1012F50081413F0004A4A4A4BFA4A40448C8487F16
:1013050048C8080040CF544424342F2080432C1073
:041315002C438000E5
:083AF000C118C1974104020650
:053C5300123C58E4FFE3
:103C5800C2A4C2A3E4FEEEC39408748094805015F5
:103C6800C2A7EF30E704D2A68002C2A6D2A7EF25EA
:073C7800E0FF0E80E1D2A382
:013C7F002222
:103C8000D2A4C2A3E4FEEEC39408748094805015BD
:103C9000C2A7EF30E704D2A68002C2A6D2A7EF25C2
:073CA000E0FF0E80E1D2A35A
:013CA70022FA
:053EB000A2119218228E
:053EB500A21292172289
:063EA500900402EFF02280
:093E9500900400EFF0A3EDF0220F
:0F3DE7007E047F007D007B017A00790002057465
:0722C70090099EEEF0C21227
:1022CE0090099AEBF0A3EAF0A3E9F030171D9009FC
:1022DE009AE0FBA3E0FAA3E0F930180812026DFFB2
:1022EE00EDF4805D12026D4D022439201803022395
:1022FE00A430125190099AE0FBA3E0FAA3E0F91280
:10230E00026DFF90099EE0FEC374089EFEF874FFF6
:10231E00088002C333D8FCFEEDF44E5F1202B39078
:10232E00099AE0FBA3E0FAA3E0F912026DFF90090F
:10233E009EE0FEF874FF088002C313D8FCFEEDF495
:10234E005E4F02243990099AE0FBA3E0FAA3E0F96C
:10235E0012026DFF90099EE0FEC374089EFEF87493
:10236E00FF088002C313D8FCFEEDF44E5F1202B3D9
:10237E0090099AE0FBA3E0FAA3E0F912026DFF9038
:10238E00099EE0FEF874FF088002C333D8FCFEED10
:10239E00F45E4F02243930124A90099AE0FBA3E012
:1023AE00FAA3E0F912026DFF90099EE0FEC37408D5
:1023BE009EFEF874FF088002C333D8FC4D5F1202F4
:1023CE00B390099AE0FBA3E0FAA3E0F912026DFFC5
:1023DE0090099EE0FEF874FF088002C313D8FC5DDE
:1023EE004F804890099AE0FBA3E0FAA3E0F91202AD
:1023FE006DFF90099EE0FEC374089EFEF874FF0800
:10240E008002C313D8FC4D5F1202B390099AE0FB11
:10241E00A3E0FAA3E0F912026DFF90099EE0FEF828
:0F242E0074FF088002C333D8FC5D4F1202B32243
:0B243D00900991EDF0900990EFF0FA8B
:10244800A3E0FE5407900997F0EB24E0900992F07E
:10245800EE131313541F75F080A4FFEA7C002FFFBE
:10246800EC35F0FE74002FF974003EFA900994746C
:1024780001F0A3EAF0A3E9F0900402E0FFECC39FA7
:102488005047900992E075F006A42445F582E5F0DE
:102498003410F583E5822CF582E43583F583E493E3
:1024A800FF900997E0FEF8EF088002C333D8FCFFDD
:1024B800900993F0FDA3E0FBA3E475F00112034239
:1024C800A9F0FA1222C70C80AF900997E0700302B6
:1024D8002573900991E0FFC3943874809480400379
:1024E800022573EF131313541F75F080A4FF90098E
:1024F80090E07C002FFFEC35F0FE74802FF974001B
:102508003EFA9009947401F0A3EAF0A3E9F090046C
:1025180002E0FFECC39F5053900992E075F006A4C7
:102528002445F582E5F03410F583E5822CF582E444
:102538003583F583E493FF900997E0FEC374089E02
:10254800FEF8EF088002C313D8FCFF900993F0FD52
:10255800A3E0FBA3E475F001120342A9F0FA900985
:0B2568009EEEF0D2121222CE0C80A3D7
:012573002245
:1032F90090098CEBF0A3EAF0A3E9F090098CE0FBCC
:10330900A3E0FAA3E0F912026D606D900402E0FFF8
:10331900C374809FFFE49400FE900400E0FD3395A0
:10332900E0FCD3ED9FEE6480F8EC6480984007E4FC
:10333900F0A3E02408F0900401E0FF3395E0FED308
:10334900EF9438EE648094804002E4F0900400E049
:10335900FFA3E0FD90098CE0FBA3E475F0011203E3
:1033690042A9F0FA12026DFB12243D900402E0FF1B
:09337900900400E02FF080832293
:08399D00900990EFF0A3EDF09A
:1039A500A312051600000001900991E0FF14F0EF45
:1039B5006020A3E0F8A3E0F9A3E0FAA3E0FB9009F7
:1039C50090E0FFE4FCFDFE1203BB90099212050A8C
:1039D50080D6900992E0FCA3E0FDA3E0FEA3E0FF02
:0139E50022BF
:0629840090098812050A0B
:10298A00E490098FF090098EF090098DF090098CEF
:10299A00E0F9A3E0FFC3994003022A61C3E99F1447
:1029AA00FD7F0A12399DA804A905AA06AB0790095A
:1029BA0088E0FCA3E0FDA3E0FEA3E0FF120446E4E6
:1029CA007B0AFAF9F8120446AF03AE0790098FE0C2
:1029DA00701B90098CE014FFA3E0C39F500FEE70A8
:1029EA0006A3E004F0806790098F7401F090040256
:1029FA00E0FFFDC374809DFDE49400FC900400E0B8
:102A0A00FB3395E0FAD3EB9DEC6480F8EA64809896
:102A1A004007E4F0A3E02408F0900401E0FD3395B8
:102A2A00E0FCD3ED9438EC648094804002E4F090AA
:102A3A00098EE0FD90098DE0C39D8FF0A4FF9004FC
:102A4A0000E02FFFA3E0FDEE2430FB12243D9009A5
:102A5A008DE004F002299790098CE0FF900400E0D1
:022A6A002FF04B
:012A6C002247
:10350B00900400E0FD3395E0FCD3ED9470EC648007
:10351B0094804007E4F0A3E02410F0900401E0FD58
:10352B003395E0FCD3ED9430EC648094804002E45E
:10353B00F0EF75F020A42479F9741235F0FA9009A4
:10354B008C74FFF0A3EAF0A3E9F0900400E0FFC055
:10355B0007A3E0FDEF240FFBED240F90098BF090F8
:10356B00098FE4F0A37420F0D007121A69900400BD
:05357B00E02410F02225
:072F8500900993EDF0AC0789
:102F8C00900400E0FF3395E0FED3EF947FEE648075
:102F9C0094804006E4F0A3E004F0900401E0FF33D9
:102FAC0095E0FED3EF943FEE648094804002E4F011
:102FBC00900993E0131313541F75F080A4AD047C97
:102FCC00002DFFEC35F0FE74002FF974003EFAA3CF
:102FDC007401F0A3EAF0A3E9F0900993E05407FF21
:102FEC00F87401088002C333D8FCFF900994E0FB0D
:102FFC00A3E475F00130180F120342A9F0FA120283
:10300C006DFEEFF45E800A120342A9F0FA12026D13
:04301C004F1202B39A
:01302000228D
:0D213C0090098AEDF0A3EBF0900989EFF017
:10214900C211D3947F748094804003747FF0900906
:102159008AE0D3943F748094804003743FF09009DF
:102169008BE0D3947F748094804003747FF090094E
:102179008CE0D3943F748094804003743FF09009BD
:1021890089E0FF90098BE0C39FFFE49400FE123EB3
:102199003A90098DEFF090098AE0FF90098CE0C32D
:1021A9009FFFE49400FE123E3A90098EEFF09009E9
:0F21B9008DE0FED36480F8EF6480984038D21137
:1021C800900992EEF090098EE090098DF0A3EEF060
:1021D800900989E0FF900992F090098AE0900989B6
:0421E800F0A3EFF081
:1021EC00A3E0FF900992F090098CE090098BF0A38A
:0221FC00EFF002
:0E21FE0090098BE0FF900989E0FED39F4025F9
:0F220C00900992EEF0900989EFF090098BEEF0B7
:10221B0090098AE0FF900992F090098CE090098A6E
:06222B00F090098CEFF0B9
:1022310090098DE0A2E713FE3395E0900990F0A399
:10224100CEF090098CE0FF90098AE0C39F90098F3E
:1022510050057401F0800374FFF090098BE0FE904B
:102261000989E0FFD39E505D201103A380089009E6
:102271008AE0FF900989E0FD122F8590098EE0FF29
:102281003395E0FEC3900991E09FFF900990E09E95
:10229100FEF0A3EFF0C3EE64809480502090098F8C
:1022A100E0FF90098AE02FF090098DE0FF3395E07F
:1022B100FE900991E02FF0900990E03EF09009899D
:0522C100E004F080952F
:0122C60022F5
:0D2C2B0090098DEDF0A3EBF090098CEFF017
:102C3800D3947F748094804003747FF090098EE071
:102C4800FF90098DE0FD2FFFE433FED3EF9440EEB3
:102C580064809480400574409DA3F090098EE0FF45
:102C680014F0EF607190098DE0131313541F75F081
:102C780080A4FF90098CE07C002FFFEC35F0FE74F7
:102C8800002FF974003EFA90098F7401F0A3EAF05E
:102C9800A3E9F090098DE05407FFF8740108800259
:102CA800C333D8FCFF90098FE0FBA3E475F0013033
:102CB800180F120342A9F0FA12026DFEEFF45E80BB
:102CC8000A120342A9F0FA12026D4F1202B39009D8
:062CD8008DE004F0808590
:012CDE0022D3
:0A2D910090098CEDF0AC07A3EBF005
:102D9B00FFEC2FFFE433FED3EF9480EE648094803E
:102DAB00400474809CF090098CE0D3943F74809421
:102DBB00804003743FF090098CE0131313541F757C
:102DCB00F080A4AD047C002DFFEC35F0FE74002FD9
:102DDB00F974003EFA90098E7401F0A3EAF0A3E9AE
:102DEB00F090098CE05407FFF87401088002C3339C
:102DFB00D8FCFF90098DE0FE14F0EE60333018170D
:102E0B00A3E0FBA3E475F001120342A9F0FA12024E
:102E1B006DFEEFF45E801490098EE0FBA3E475F079
:102E2B0001120342A9F0FA12026D4F1202B380C3D2
:012E3B002274
:0A1A6900900988EFF090098AEBF075
:0C1A7300E4900991F0A3F0EFD39B401623
:101A7F00900988E0FF900999F090098AE090098811
:061A8F00F090098AEFF05F
:0A1A950090098BE0FFEDD39F400B9A
:0B1A9F00900999EDF0AD0790098BF065
:101AAA00900988E0D3947F748094804003747FF017
:101ABA00EDD3943F7480948040027D3F90098AE080
:101ACA00D3947F748094804003747FF090098BE0F4
:101ADA00D3943F748094804003743FF0900994ED4E
:101AEA00F090098BE0FF900994E0FED39F40030237
:101AFA001C59EE5407900998F0900988E0900993D0
:101B0A00F090098AE0FF900993E0FDD39F40030219
:101B1A001C4F900990E024FFFF90098FE034FFFEEC
:101B2A00D3900992E09F900991E09E4003021C4FD6
:101B3A00900994E0131313541F75F080A47C002DB0
:101B4A00FFEC35F0FE74002FF974003EFAA374011D
:101B5A00F0A3EAF0A3E9F090098CE0FBA3E0FAA372
:101B6A00E0F9900991E475F00112034285F082F5DB
:101B7A0083120286FF900998E0FEF8EF088002C3FC
:101B8A0033D8FCFC900995E0FBA3E475F00112033D
:101B9A0042A9F0FAAD041222C7900998E070030234
:101BAA001C46900994E0FFC39438748094804003E3
:101BBA00021C46900992E024FFF0900991E034FF5C
:101BCA00F0EF131313541F75F080A4FF900993E0EC
:101BDA007C002FFFEC35F0FE74802FF974003EFA7A
:101BEA009009957401F0A3EAF0A3E9F090098CE05A
:101BFA00FBA3E0FAA3E0F9900991E475F00112035E
:101C0A004285F082F583120286FF900998E0FEC3AE
:101C1A0074089EFEF8EF088002C313D8FCFC9009F2
:101C2A0095E0FBA3E475F001120342A9F0FAAF04B0
:101C3A00AD0790099EEEF0D2121222CE900993E0DF
:0F1C4A0004F0021B0B900994E02408F0021AEB3F
:011C59002268
:103A2D009009887401F0A37400F0A37400F0E4FD14
:103A3D00EDC39408748094805029E4FCECC3948009
:103A4D0074809480501A900988E0FBA3E475F0010E
:103A5D00120342A9F0FA12026DFF123C800C80DCB9
:033A6D000D80CDFC
:013A70002233
:10302100D2A5123DF6C2A5123DF6D2A57FAE123C45
:10303100587F20123C537F21123C537F7F123C5812
:103041007F22123C537F07123C587F40123C587F2D
:1030510081123C589005C6E075F00AA4FF123C5855
:103061007FA1123C587FC8123C587FA6123C587F62
:10307100A8123C587F3F123C587FD3123C537FD556
:10308100123C587F20123C587FD9123C587FF212D3
:103091003C587FDA123C587F12123C587FDB123CBD
:1030A100587F30123C587F8D123C587F14123C5887
:0A30B1007FA4123C587FAF023C5888
:0D3E2D00E4F5C7F5C5F5C675C380F5C422E0
:103DA50075C78075C5018FC4EEF5C375C65A75C64E
:073DB500A500AFC2023E2D84
:103D740075C78075C5028FC4EEF5C3AF058FC275D4
:093D8400C65A75C6A500023E2DC9
:103DD20075C78075C5038FC4EEF5C375C65A75C61F
:053DE200A500023E2DCA
:0E2B560090099AEBF0A3EAF0A3E9F0A3EDF0EA
:102B6400E4FFFE123DD2E4A3F0A3F090099EE0FE40
:102B7400A3E0FFC3EE648094825019123DA5EFF4E4
:102B84006002C32290099FE004F070DF90099EE088
:102B940004F080D7E490099EF0A3F090099DE0FD35
:102BA400A3E0FEA3E0FFC39D7480F8EE6480985018
:102BB4002690099AE0FBA3E0FAA3E0F98F828E83C2
:102BC400120286FD123D7490099FE004F070CC90CF
:102BD400099EE004F080C4E490099EF0A3F09009FB
:102BE4009DE0FDA3E0FEA3E0FFC39D7480F8EE64C6
:102BF40080985031123DA590099AE0FBA3E0FAA316
:102C0400E0F990099EE0FCA3E0F5828C8312028631
:102C14006F6002C32290099FE004F070C190099E86
:062C2400E004F080B9D3CA
:012C2A002287
:0B3BF40090099AEBF0A3EAF0A3E9F0BF
:103BFF00E4FCECC39D501EECFF7E00123DA5900926
:103C0F009AE0FBA3E475F001120342A9F0FAEF1258
:053C1F0002B30C80DD82
:013C2400227D
:102574002D00560020202020202000487A0041759C
:10258400746F002020202000540041004E005300AE
:102594004661696C0052756E200053746F700020A0
:1025A400202020200056302E3300427920437265CB
:1025B4006174697665204C617500504D6F64653DAA
:1025C400004C53423D00202020004252543D00560E
:1025D4006261743D005361766520537563632E0018
:1025E40053617665204661696C2100FFFF0303EFA8
:1025F4001FEF0303FFFFFFFFFFFB0303FBFFFFFFCF
:10260400FFFFFF0303CF9F3F0303FFFFFFFFFFFB1A
:102614000303FBFFFFFFFFFFFFFFFFFFFFFF0303BA
:10262400FBF3070FFFFFFFFFFFE7C39B3B73F7FFBE
:10263400FFFFFFFF0703FBFB0307FFFFFF1F1F183D
:10264400181F1F1F18181F1F1F1F1F1B18181B1FC1
:102654001F1F1F1F1F18181F1F1F18181F1F1F1FA2
:102664001F1B18181B1F1F1F1F1F1F1F1F1F1F1F8C
:1026740018181B191C1E1F1F1F1F1F1D191B1B1899
:0F2684001C1F1F1F1F1F1C181B1B181C1F1F1F95
:103DBC009005CEE0FD7F0E1215E09007CDEBF0A341
:063DCC00EAF0A3E9F02279
:10289600200B03022983900603E0FAA3E0FB7C00E9
:1028A6007D64FFAE021202D77C007D0A1202D7C3F6
:1028B600ED9405EC9400401CEB24F4FFEA3401FE91
:1028C6007C037DE81202D77C037DE81202C59005E1
:1028D600BDEE8020900603E0FEA3E0FF7C037DE8CA
:1028E6001202D77C037DE81202C5EF24F4FFEE3412
:1028F600019005BDF0A3EFF0900600E0FAA3E0FB1F
:102906007C007D64FFAE021202D77C007D0A1202B3
:10291600D7C3ED9405EC9400401E7C037DE8AF031D
:10292600AE021202D77C037DE81202C5EF24F4FF43
:10293600EE34019005BB801A900600E0FEA3E0FF8E
:102946007C037DE81202D77C037DE81202C5900560
:10295600BBEEF0A3EFF0D39005BEE094309005BD3A
:10296600E0648094F540077475F0A37430F0C3906A
:0E29760005BBE0648094805004E4F0A3F022DE
:08131900900992EEF0A3EFF041
:1013210090099674FFF0A3F0D2132011030213AEBB
:101331009005D4E0FF3395E0FE9005D8E02FFFE45F
:101341003E900994F0A3EFF0900994E0FEA3E0FF32
:10135100C394DAEE648094804003021440EF25E0E8
:10136100FDEE33FC74032DF58274043CF583E0FE3D
:10137100A3E0FF74052DF58274043CF583E0FCA322
:10138100E0FD900992E0FAA3E0FBD2141234C150BF
:101391000302140C12348C5003021420900995E0BE
:1013A10004F07006900994E004F00213499005D40A
:1013B100E0FF3395E0FE9005D8E02FFFE43E900971
:1013C10094F0A3EFF0900994E0FEA3E0FFD3940022
:1013D100EE648094804068EF25E0FDEE33FC7403F9
:1013E1002DF58274043CF583E0FEA3E0FF74052D26
:1013F100F58274043CF583E0FCA3E0FD900992E0E2
:10140100FAA3E0FBD2141234C1500F900994A3E067
:10141100900998F0D212C213802512348C500F908B
:101421000994A3E0900998F0C212C21380119009A7
:1014310095E024FFF0900994E034FFF00213C630E8
:1014410013030215B8900998E0FF900994E4F0A302
:10145100EFF0900994E0FEA3E0FFC3EE6480948076
:1014610050030214FD30123BEF25E0FFEE33FE7412
:10147100032FF58274043EF583E0FCA3E0FD90099F
:1014810092E0FAA3E0FBC3ED9BEC9A405E74052F5A
:10149100F58274043EF583E0FEA3E0D39BEE9A50FF
:1014A1004A803F900995E025E0FF900994E033FEE2
:1014B10074032FF58274043EF583E0FCA3E0FD90F4
:1014C1000992E0FAA3E0FBD3ED9BEC9A501D740561
:1014D1002FF58274043EF583E0FEA3E0C39BEE9AF0
:1014E1004009900994A3E0A3F08011900995E024AC
:1014F100FFF0900994E034FFF0021453900998E052
:10150100FF900994E4F0A3EFF0900994E0FEA3E0CA
:10151100FFC394DBEE6480948040030215B830125F
:101521003BEF25E0FFEE33FE74032FF58274043E9A
:10153100F583E0FCA3E0FD900992E0FAA3E0FBC390
:10154100ED9BEC9A406074052FF58274043EF5839F
:10155100E0FEA3E0D39BEE9A504C803F900995E0CA
:1015610025E0FF900994E033FE74032FF5827404A3
:101571003EF583E0FCA3E0FD900992E0FAA3E0FBD5
:10158100D3ED9BEC9A501F74052FF58274043EF540
:1015910083E0FEA3E0C39BEE9A400B900994A3E085
:1015A100900997F08011900995E004F07006900978
:1015B10094E004F002150A900996E0FFF4600AA392
:1015C100E0FEF46004EFB50607E4900602F0C322E2
:0E15D100900996E0FFA3E0C39F900602F0D3BE
:0115DF0022E9
:10185B0020090302191C9005D3E0FF3395E0FEEF3E
:10186B004E600302192D9005CEE0FFFD3395E0FC91
:10187B00D3ED9402EC64809480500302192DEF2475
:10188B00FC601104701D900992E4F0A37402F0A3A4
:10189B0014F0801C900992E4F0A37404F0A374027A
:1018AB00F0800D900992E4F0A37408F0A37403F098
:1018BB009005CFE0F8A3E0F9A3E0FAA3E0FB9006D4
:1018CB0002E0FFE4FCFDFEEB2FFFEE3AFEED39FDEF
:1018DB00EC38FC9005CF12050A9005D9E475F001A0
:1018EB0012032CFED3900993E095F0900992E09EA1
:1018FB004003021A689005CFE0FCA3E0FDA3E0FED5
:10190B00A3E0FF900994E0F9F81204F7900602EFB8
:10191B00F0E49005D9F0A3F09005CF120516000066
:10192B0000009005CEE0B40C004003021A68901939
:10193B0040F828287302196402198E0219A00219A3
:10194B00B20219C60219DA0219ED021A00021A13B1
:10195B00021A26021A3A021A4F900602E0FCE4120F
:10196B0001B8A804A905AA06AB07E4FFFE7D487CD5
:10197B0042120111E4FBFAF9783F12001D1201EC3F
:10198B00021A62900602E0FF747D8FF084FFE4FC84
:10199B00FDFE021A62900602E0FF74FA8FF084FFDC
:1019AB00E4FCFDFE021A62900602E0FD7C007E0163
:1019BB007FF41202D7E4FCFD021A62900602E0FDEE
:1019CB007C007E047FE21202D7E4FCFD021A6290D7
:1019DB000602E0FD7C007E097FC41202D7E4FCFD09
:1019EB008075900602E0FD7C007E137F881202D783
:1019FB00E4FCFD8062900602E0FD7C007E307FD42B
:101A0B001202D7E4FCFD804F900602E0FD7C007EC5
:101A1B00617FA81202D7E4FCFD803C900602E0FB3C
:101A2B00E4FAF9F87F507EC3FDFC123A71802890DE
:101A3B000602E0FBE4FAF9F87F487EE87D01FC1230
:101A4B003A718013900602E0FBE4FAF9F87F907E7E
:0D1A5B00D07D03FC123A719005C712050AF8
:011A6800225B
:10340800E0FEA3E0FF9005D5E0FBA3E0FAA3E0F916
:103418009005C0E0FDA3E0900A0FCDF0A3EDF09079
:0E34280005C4E0FDA3E0900A11CDF0A3EDF085
:0B343600900A0CEBF0A3EAF0A3E9F011
:10344100A3E0FCA3E0FD120547E47B64FAF9F8125E
:1034510003BBC006C007900A0CE0FBA3E0FAA3E09F
:10346100F9120358AEF0FBAA06E4F9F8D007D0062A
:10347100120446C006C007900A11E0FEA3E0FBAAB1
:0B34810006E4F9F8D007D0060204466C
:10358000E0FEA3E0FF9005D5E0FBA3E0FAA3E0F99D
:103590009005C0E0FDA3E0900997CDF0A3EDF09079
:0E35A00005C4E0FDA3E0900999CDF0A3EDF085
:1035AE00120358FDACF0120547A804A905AA06ABF4
:1035BE0007900999E0FEA3E0FFE4FCFD1203BBC0F7
:1035CE0006C007900997E0FEA3E0FBAA06E4F9F80F
:1035DE00D007D006120446E47B64FAF9F8020446DA
:05315100E0FEA3E0FF19
:04315600AB07AA0613
:10315A00C3EB9410EA942750337C037DE81202D71C
:10316A00EF2430900605F0A3742EF07C007D64AF46
:10317A0003AE021202D77C007D0A1202D7ED243078
:10318A00A3F07C007D0AAF03AE0280357C277D1058
:10319A00AF03AE021202D7EF2430900605F07C038B
:1031AA007DE8AF03AE021202D77C007D0A1202D775
:1031BA00ED2430A3F0A3742EF0AE02AF037C007DA1
:1031CA00641202D77C007D0A1202D7ED2430A3F0E4
:0931DA00E4A3F07B017A067905FB
:0131E30022C9
:1009B500E4FFFEFDFC9005C7E0F8A3E0F9A3E0FA2B
:1009C500A3E0FBC31204E6700E90060A742AF0A396
:1009D500F0A3F0A3020D637F807E967D987C009046
:1009E50005C7E0F8A3E0F9A3E0FAA3E0FBC312040E
:1009F500E6404F7B807A96799878009005C7E0FCB1
:100A0500A3E0FDA3E0FEA3E0FF120446EF2430902F
:100A1500060AF07B407A42790F78009005C7E0FC22
:100A2500A3E0FDA3E0FEA3E0FF120446E47B0AFA7F
:100A3500F9F8120446EB243090060CF0A3744D022D
:100A45000D637F407E427D0F7C009005C7E0F8A3D3
:100A5500E0F9A3E0FAA3E0FBC31204E640537B40B0
:100A65007A42790F78009005C7E0FCA3E0FDA3E08A
:100A7500FEA3E0FF120446EF243090060AF0A374AB
:100A85002EF07BA07A86790178009005C7E0FCA35B
:100A9500E0FDA3E0FEA3E0FF120446E47B0AFAF9B9
:100AA500F8120446EB243090060CF0A3744D020DA9
:100AB500637FA07E867D017C009005C7E0F8A3E0FA
:100AC500F9A3E0FAA3E0FBC31204E640767BA07A23
:100AD50086790178009005C7E0FCA3E0FDA3E0FE60
:100AE500A3E0FF120446EF243090060AF0E47B10E1
:100AF5007A27F9F89005C7E0FCA3E0FDA3E0FEA383
:100B0500E0FF120446E47B0AFAF9F8120446EB24E6
:100B15003090060BF0E47BE87A03F9F89005C7E01E
:100B2500FCA3E0FDA3E0FEA3E0FF120446E47B0A7C
:100B3500FAF9F8120446EB243090060CF0A3746B16
:100B4500020D63E47F107E27FDFC9005C7E0F8A346
:100B5500E0F9A3E0FAA3E0FBC31204E6404DE47B11
:100B6500107A27F9F89005C7E0FCA3E0FDA3E0FEA5
:100B7500A3E0FF120446EF243090060AF0E47BE878
:100B85007A03F9F89005C7E0FCA3E0FDA3E0FEA316
:100B9500E0FF120446E47B0AFAF9F8120446EB2456
:100BA5003090060BF0A3746B020D63E47FE87E03BF
:100BB500FDFC9005C7E0F8A3E0F9A3E0FAA3E0FB8C
:100BC500C31204E65003020C56E47BE87A03F9F8F5
:100BD5009005C7E0FCA3E0FDA3E0FEA3E0FF12043F
:100BE50046EF243090060AF0A3742EF0E47B0AFA4F
:100BF500F9F89005C7E0FCA3E0FDA3E0FEA3E0FF44
:100C0500120446E47B0AFAF9F8120446AC00AD0179
:100C1500AE02AF03E47B05FAF9F8C31204E6E47B00
:100C25006450028002FAF9F89005C7E0FCA3E0FDE4
:100C3500A3E0FEA3E0FF120446E47B0AFAF9F812EA
:100C45000446EB243090060CF090060D746B020DF3
:100C550063E47F64FEFDFC9005C7E0F8A3E0F9A31B
:100C6500E0FAA3E0FBC31204E64065E47B64FAF90D
:100C7500F89005C7E0FCA3E0FDA3E0FEA3E0FF12AA
:100C85000446EF243090060AF0E47B0AFAF9F8905E
:100C950005C7E0FCA3E0FDA3E0FEA3E0FF120446C8
:100CA500E47B0AFAF9F8120446EB243090060BF0BF
:100CB500E47B0AFAF9F89005C7E0FCA3E0FDA3E0A0
:100CC500FEA3E0FF120446EB243090060C020D63F0
:100CD500E47F0AFEFDFC9005C7E0F8A3E0F9A3E078
:100CE500FAA3E0FBC31204E6403DE47B0AFAF9F8F7
:100CF5009005C7E0FCA3E0FDA3E0FEA3E0FF12041E
:100D050046EF243090060AF0E47B0AFAF9F89005DC
:100D1500C7E0FCA3E0FDA3E0FEA3E0FF120446EB61
:100D2500243090060B8037E47F01FEFDFC9005C75B
:100D3500E0F8A3E0F9A3E0FAA3E0FBC31204E64060
:100D450021E47B0AFAF9F89005C7E0FCA3E0FDA3CE
:100D5500E0FEA3E0FF120446EB243090060AF0E41F
:080D6500A3F07B017A06790A74
:010D6D002263
:102E3C00900992EEF0A3EFF0A3ECF0A3EDF0A3EA6F
:102E4C00F0A3EBF0900994E0FEA3E0FF900992E070
:102E5C00FCA3E0FDD39FEC9E4002800F900996E00E
:102E6C00FEA3E0FFC3ED9FEC9E5008900992EEF09C
:102E7C00A3EFF0900992E0FEA3E0FFC3900995E068
:102E8C009FFF900994E09EFE90099AE0FCA3E0FD60
:102E9C00C3900999E09DFD900998E09CFC120547B0
:102EAC00C006C007900996E0FEA3E0FFC390099509
:102EBC00E09FFF900994E09EAB07FAE4F9F8D00785
:102ECC00D00612044690099BE02FFF90099AE03E31
:092EDC00FE900992F0A3EFF02230
:10348C00900995E025E0FD900994E033FC74032D40
:10349C00F58274043CF583E0FEA3E0FF74052DF582
:1034AC008274043CF583E0FCA3E0FD900992E0FA01
:0534BC00A3E0FBC214B7
:1034C100900A0AEEF0A3EFF0A3ECF0A3EDF03014B4
:1034D1001CD3900A0BE09B900A0AE09A502AC390F1
:1034E1000A0DE09B900A0CE09A401DD322C3900A7A
:1034F1000BE09B900A0AE09A400ED3900A0DE09BE4
:0A350100900A0CE09A500122C32248
:100D6E00E490098AF0A3F0A3740FF0A374FFF0E4EB
:100D7E00A3F0A3F0A3F0A3F0200203020E629005ED
:100D8E00CEE09005DBF0E4900988F0A3F09009889E
:100D9E00E0FEA3E0FFC394DCEE64809480503AEF53
:100DAE0025E0FFEE33FE9007CDE0FBA3E0FAA3E0D3
:100DBE00F98F828E83120383FD74032FF5827404E0
:100DCE003EF583E5F0F0A3EDF0900989E004F070B4
:100DDE00BC900988E004F080B49005D8746EF0D20F
:100DEE0008900988E4F0A37432F0900988E0FEA31D
:100DFE00E0FFC394AAEE648094805053EF25E0FD8B
:100E0E00EE33FC74032DF58274043CF583E0FEA3EF
:100E1E00E0FF74052DF58274043CF583E0FCA3E03D
:100E2E00FD9005C2E0FAA3E0FBA20A92141234C1AF
:100E3E00500D900988A3E09005D8F0C2088010905C
:100E4E000989E004F070A3900988E004F0809BE427
:100E5E009005D4F0E4900988F0A3F09005D4E0FF5B
:100E6E003395E0FEEF25E0FFEE33FE9005D8E075FA
:100E7E00F002A4249FF582E5F03403F583E5822F7A
:100E8E00F582E5833EF583C083C082900989E02513
:100E9E00E0FF900988E033FED082D083E5822FF503
:100EAE0082E5833EF583E0FEA3E0FFC390098BE06D
:100EBE009F90098AE09E5002800DD390098DE09F8D
:100ECE0090098CE09E4005EEF0A3EFF0900989E0CA
:100EDE0004F07006900988E004F0900988E0700430
:100EEE00A3E064656003020E6990098A1235809052
:100EFE000603EEF0A3EFF090098C123580900600F9
:100F0E00EEF0A3EFF01228969005BD12340890066D
:100F1E0011EEF0A3EFF09005BB12340890060FEE21
:100F2E00F0FCA3EFF0FD90098CE0FEA3E0FF90092A
:100F3E008BE02FFF90098AE03EC313FEEF13FF9064
:100F4E00098EEEF0A3EFF0900612E02DFF90061141
:100F5E00E03CC313FEEF13FF900990EEF0A3EFF009
:100F6E0090098EE0FCA3E0FDC39FEC9E5006AE04FC
:100F7E00AF058008900990E0FEA3E0FFD211121396
:100F8E00194022900990E0FEA3E0FF90098EE0FC4C
:100F9E00A3E0FD9FEC9E5006AE04AF058000C2118B
:100FAE00121319500512185B800A9005C712051608
:100FBE0000000000E4900988F0A3F0900988E0FE9C
:100FCE00A3E0FFC394DCEE648094805069EF25E0CB
:100FDE00FFEE33FE74032FF58274043EF583E0FEBC
:100FEE00A3E0FF900611E0FCA3E0FD90060FE0FAEF
:100FFE00A3E0FB900998E4F0A37434F0A3E4F0A30B
:10100E007408F0122E3CAC06AD07900989E025E07D
:10101E00FF900988E033FE74132FF58274063EF5B7
:10102E0083ECF0A3EDF0900989E004F0708D900947
:06103E0088E004F080854B
:011044002289
:1005A000200D03020716C20D123DE77B047D087F74
:1005B0001A122D917B047D347F1A122D917B047DBC
:1005C000087F7B122D917B047D347F7B122D917BE4
:1005D000057D087F31122D917B057D347F31122DF1
:1005E000917B057D087F4A122D917B057D347F4AE2
:1005F000122D917B057D087F63122D917B057D3443
:100600007F63122D917B2D7D087F19122C2B7B2D62
:100610007D087F7F122C2BE4900988F0900988E0F8
:10062000FFC3940F748094805017EF75F007A424D3
:100630001AFF7B037D1E122D91900988E004F08043
:10064000DBE4900988F0900988E0FFC39406748089
:100650009480503BEF75F008A42409FD7B037F33A1
:10066000122C2B900988E075F008A42409FD7B0367
:100670007F4C122C2B900988E075F008A42409FD0A
:100680007B037F65122C2B900988E004F080B77BF8
:10069000197D3EE4FF122D917B037D3CE4FF122C7B
:1006A0002B7B037D3C7F18122C2B9005D4E0FF336D
:1006B00095E0FE9005D8E02FFFE43ECF24CECF3466
:1006C000FFFE7C007D181202C57D771202D77B04E5
:1006D0007D3A122C2B7D387F1A123E95900600121F
:1006E0003151900989EBF0A3EAF0A3E9F01232F955
:1006F0007BFF7A2579741232F990060312315190FA
:100700000989EBF0A3EAF0A3E9F01232F97BFF7A52
:100710002579761232F9C212123EB5E4FD7F5C12E1
:100720003E957BFF7A2579781232F9E4FD7F5C12E1
:100730003E951209B5900989EBF0A3EAF0A3E9F020
:100740001232F97BFF7A25797F1232F9E4FDFF300E
:100750000B0B123E957BFF7A2579828009123E951C
:100760007BFF7A2579871232F9E4FD7F21123E95CD
:100770009005CBE0FF3395E0FEEF64024E700F2052
:10078000030C7B08FD7F45122C2BD2118010D21157
:10079000123EB07B08E4FD7F45122C2BC211123EA5
:1007A000B09005CC123151900989EBF0A3EAF0A387
:1007B000E9F07BFF7A25798C1232F9900989E0FB08
:1007C000A3E0FAA3E0F91232F97BFF7A25797612D9
:1007D00032F9C211123EB09005CBE0FF3395E0FE36
:1007E000EF64034E70182003157B08FD7F47122C21
:1007F0002B7B08E4FD7F4E122C2BD2118019D211D5
:10080000123EB07B08E4FD7F47122C2B7B08E4FDF1
:100810007F4E122C2BC211123EB0300A047B7B801B
:10082000027B7CE4FD7F4812243DC211123EB09051
:1008300005CBE0FF3395E0FEEF64044E700F20031C
:100840000C7B08FD7F56122C2BD2118010D2111276
:100850003EB07B08E4FD7F56122C2BC211123EB035
:10086000E4FD7F50123E959005D3E0FF3395E0FE06
:10087000EF4E70087BFF7A25798E802C9005D3E0AF
:10088000FF3395E0FEEF64014E70087BFF7A257917
:100890009080159005D3E0FF3395E0FEEF64024EA3
:1008A00070097BFF7A2579921232F9C211123EB09B
:1008B0003008107D18E4FF123E957BFF7A2579946D
:1008C0001232F97D10E4FF30090B123E957BFF7A5E
:1008D0002579998009123E957BFF7A25799E1232FF
:1008E000F97D387F61123E957BFF7A2579A312321C
:1008F000F99005CBE0FF3395E0FEEF4E7008200342
:1009000005D211123EB07D387F61123E959005CE22
:10091000E0FF3395E0FEEF25E0FFEE33FE74E22FBB
:10092000F58274053EF583E0FEA3E0AA06F97BFF9D
:100930001232F9C211123EB07D08E4FF123E957BDF
:10094000FF7A2579871232F99005CBE0FF3395E0E5
:10095000FEEF64014E7008200305D211123EB090E4
:1009600005BD123151900989EBF0A3EAF0A3E9F03B
:100970007D08E4FF123E95900989E0FBA3E0FAA30D
:10098000E0F91232F9C211123EB09005BB1231519A
:10099000900989EBF0A3EAF0A3E9F07D2EE4FF12C1
:1009A0003E95900989E0FBA3E0FAA3E0F91232F941
:0509B000D212023EB569
:102A6D00300603022AFEE4900988F0900988E0FC04
:102A7D00C39464748094805078E0FE241AFFC007DC
:102A8D009005D4E0F9FB3395E0FA9005D8E02BFBE7
:102A9D00E43AFAEE7E002BFFEE3AFEEF25E0FFEE74
:102AAD0033FE74AF2FF58274053EF583A3E0FDEC84
:102ABD00241BFBE9FF3395E0FE9005D8E02FFFE4E2
:102ACD003EFEEC7583002FFFE5833EFEEF25E0FF14
:102ADD00EE33FE74B12FF58274053EF583A3E090BD
:102AED00098CF0D00712213C900988E004F0022AED
:102AFD0078300654E4900988F0900988E0D3946406
:102B0D00748094805042E0FE241AFFC0079005D4D3
:102B1D00E0FD3395E0FC9005D8E02DFDE43CFCEEA6
:102B2D007E002DFFEE3CFEEF25E0FFEE33FE74AF91
:102B3D002FF58274053EF583A3E0FDD007122F8596
:082B4D00900988E004F080B15A
:012B5500225D
:101FAB00300D67C20D123DE790098B7424F0A374BA
:101FBB00FFF0A37425F0A374EFF0A3E4F0A374A4D3
:101FCB00F07B637D187F12121A697D1E7F66123EAD
:101FDB00957BFF7A2579A91232F97D277F1E123E58
:101FEB00957BFF7A2579AE1232F97D307F2C123E2C
:101FFB0095E4FF12350B7F0112350B7F0212350B67
:10200B007F0312350B7F0412350BC212123EB5E45F
:10201B00FDFF123E957BFF7A2579BE1232F9A2069F
:10202B00E43325E0FFE433FE74DC2FF58274053EC8
:10203B00F583E0FEA3E0AA06F97BFF1232F9E4FD7B
:10204B007F46123E957BFF7A2579C51232F97BFFCD
:10205B007A2579CA1232F9E4FD7F5E123E9590051E
:10206B00C4E0FEA3E0FFE4FCFD90098C7403F012C6
:10207B0029847D0C7F46123E957BFF7A2579CE1203
:10208B0032F97BFF7A2579CA1232F97D0C7F5E1209
:10209B003E959005C6E0FFE4FCFDFE90098C7403B1
:1020AB00F01229847D0CE4FF123E957BFF7A257993
:1020BB00D31232F99005E01231511232F97BFF7ACB
:1020CB002579761232F99005BFE0FF3395E0FEEFEC
:1020DB004E700C7B7DFD7F4012243D7B2080199040
:1020EB0005BFE0FF3395E0FEEF64014E70157B20DA
:1020FB00FD7F4012243D7B7DE4FD7F7412243D7BEC
:10210B002080229005BFE0FF3395E0FEEF64024E86
:10211B00701A7B20FD7F4012243D7B20E4FD7F74F1
:10212B0012243D7B7D7D0C7F7412243DD212023E26
:01213B00B5EE
:103CF4007D0C7F40123E95C212123EB57BFF3011FF
:103D0400067A2579D980047A2579E41232F9D21217
:033D1400023EB5B7
:103853005665637400446F7473004175746F202060
:10386300004E6F726D616C0053696E676C65003555
:1038730030306D73003230306D73003130306D7322
:103883000035306D730032306D730031306D73006D
:10389300356D7300326D7300316D730035303075E3
:0E38A3007300323030757300313030757300B1
:103AF8004105CE024405DC385338584605FA385D8E
:103B08003864386B5805E238723878387E3884382B
:0F3B180089388E38933897389B389F38A538AB4B
:10001600020258E86480F8E933E83360110460F0BE
:10002600ED33EC337009E8FCE9FDEAFEEBFF220450
:1000360060DED3EB9FEA9EE99DE8C2E78CF0C2F74B
:1000460095F0400CE8CCF8E9CDF9EACEFAEBCFFB17
:1000560012022385D0F05804700320D5B3E804704B
:10006600075002B2D502026292D5EC0460F7E4CCE6
:10007600C0E0C398F8603B94186008400DD0E0FBE0
:1000860002023AE4FBFAC9FC8028E830E406E4C937
:10009600FBE4CAFCE830E305E4C9CACBFCE8540734
:1000A6006010F8C3E913F9EA13FAEB13FBEC13FC3F
:1000B600D8F130F52FC3E49CFCEF9BFFEE9AFEEDE2
:1000C60099FDD0E0FBEF4E4D4C701222DB0302028D
:1000D6005FEC2CFCEF33FFEE33FEED33FDED30E746
:1000E600EB02023AEF2BFFEE3AFEED39FDD0E0FBD4
:1000F60050130BBB0003020262ED13FDEE13FEEF7D
:0801060013FFEC13FC02023AA6
:10010E00020262EC5D046005E859047003020258B5
:10011E00120223580460F6EC4860F2EC7004FDFE07
:10012E00FF22C860DB2481C85009C39860025006C4
:10013E0002025F9850CAF582E9294B4A7005AB82DC
:10014E0002024E75F0007C1A7880C3EF9BEE9AED9A
:10015E0099400DC3EF9BFFEE9AFEED99FDE842F03C
:10016E00DC23ACF0D0E0FFD0E0FED0E0FDAB82208F
:10017E00E7101BEB60BAEC2CFCEF33FFEE33FEED19
:10018E0033FD02023AE803F830E705C0F075F000DF
:10019E00EF2FFFEE33FEED33FD40B830E7C280AAFD
:1001AE0075F020800E75F010800575F0087D007ECC
:1001BE00007F003392D530D5031204D8EC334010B3
:1001CE00EF33FFEE33FEED33FDEC33FCD5F0ED22D5
:0E01DE00E5F0247EA2D513CC92E7CDCEFF2211
:1001EC00EDD2E7CD33EC3392D524814006E4FFFE0B
:1001FC00FDFC22FCE4CFCECDCC24E0501174FF806A
:10020C00EDC3CC13CCCD13CDCE13CECF13CF047006
:07021C00F030D5DE0204D82A
:10022300E9D2E7C933E833F892D5EDD2E7CD33EC21
:0702330033FC5002B2D5229A
:10023A00EC30E7100FBF000C0EBE00080DBD000425
:10024A000BEB6014A2D5EB13FCED92E7FD2274FFD1
:10025A00FCFDFEFF22E480F8A2D574FF13FC7D802A
:03026A00E480EF3E
:1031F000023791E493A3F8E493A34003F68001F22D
:1032000008DFF48029E493A3F85407240CC8C333DF
:10321000C4540F4420C8834004F456800146F6DFAE
:10322000E4800B0102040810204080903AF0E47E14
:10323000019360BCA3FF543F30E509541FFEE493A3
:10324000A360010ECF54C025E060A840B8E493A36A
:10325000FAE493A3F8E493A3C8C582C8CAC583CA95
:10326000F0A3C8C582C8CAC583CADFE9DEE780BE4D
:013B2700009D
:10026D00BB010689828A83E0225002E722BBFE028F
:09027D00E32289828A83E49322C2
:10028600BB010CE58229F582E5833AF583E022502D
:1002960006E92582F8E622BBFE06E92582F8E22277
:0D02A600E58229F582E5833AF583E4932291
:1002B300BB010689828A83F0225002F722BBFE012A
:0202C300F32224
:1002C500EF8DF0A4A8F0CF8CF0A428CE8DF0A42E4D
:0202D500FE2207
:1002D700BC000BBE0029EF8DF084FFADF022E4CC0B
:1002E700F875F008EF2FFFEE33FEEC33FCEE9DECD4
:1002F700984005FCEE9DFE0FD5F0E9E4CEFD22ED1A
:10030700F8F5F0EE8420D21CFEADF075F008EF2F63
:10031700FFED33FD4007985006D5F0F222C398FD54
:050327000FD5F0EA22F1
:10032C00C5F0F8A3E028F0C5F0F8E582158270025C
:06033C001583E038F022F9
:10034200A3F8E0C5F025F0F0E5821582700215836E
:06035200E0C838F0E822CB
:10035800BB010A89828A83E0F5F0A3E02250068770
:10036800F009E71922BBFE07E3F5F009E319228932
:0B037800828A83E493F5F07401932265
:10038300BB0110E58229F582E5833AF583E0F5F0B8
:10039300A3E0225009E92582F886F008E622BBFE95
:1003A3000AE92582F8E2F5F008E222E5832AF583DB
:0803B300E993F5F0A3E99322A0
:1003BB00E88FF0A4CC8BF0A42CFCE98EF0A42CFCE1
:1003CB008AF0EDA42CFCEA8EF0A4CDA8F08BF0A45F
:1003DB002DCC3825F0FDE98FF0A42CCD35F0FCEBBE
:1003EB008EF0A4FEA9F0EB8FF0A4CFC5F02ECD3983
:0F03FB00FEE43CFCEAA42DCE35F0FDE43CFC22F0
:10040A0075F008758200EF2FFFEE33FECD33CDCCA9
:10041A0033CCC58233C5829BED9AEC99E58298402C
:10042A000CF582EE9BFEED9AFDEC99FC0FD5F0D609
:10043A00E4CEFBE4CDFAE4CCF9A88222B800C1B933
:10044A000059BA002DEC8BF084CFCECDFCE5F0CB71
:10045A00F97818EF2FFFEE33FEED33FDEC33FCEBAA
:10046A0033FB10D703994004EB99FB0FD8E5E4F965
:10047A00FA227818EF2FFFEE33FEED33FDEC33FC52
:10048A00C933C910D7059BE99A4007EC9BFCE99A46
:10049A00F90FD8E0E4C9FAE4CCFB2275F010EF2F8B
:1004AA00FFEE33FEED33FDCC33CCC833C810D7078B
:1004BA009BEC9AE899400AED9BFDEC9AFCE899F8C6
:0E04CA000FD5F0DAE4CDFBE4CCFAE4C8F92259
:103A7100C2D5E830E70FB2D5E4C39BFBE49AFAE480
:103A810099F9E498F8EC30E717B2D5123AA7120485
:103A910046E4C39BFBE49AFAE499F9E498F88003BD
:103AA10012044630D50DE4C39FFFE49EFEE49DFD64
:043AB100E49CFC2273
:0E04D800C3E49FFFE49EFEE49DFDE49CFC2235
:1004E600EB9FF5F0EA9E42F0E99D42F0E89C45F06C
:0104F60022E3
:1004F700E8600FECC313FCED13FDEE13FEEF13FFE3
:03050700D8F12206
:0C050A00ECF0A3EDF0A3EEF0A3EFF02264
:10051600A8828583F0D083D08212052D12052D1274
:10052600052D12052DE473E493A3C583C5F0C58399
:10053600C8C582C8F0A3C583C5F0C583C8C582C82F
:010546002292
:10054700EC8EF0A4CCC5F0CCCDF8EFA4CEC5F02D41
:10055700FDE43CFCE8A42EC8C5F03DFDE43CFCEFFF
:0D056700A4FFE5F028FEE43DFDE43CFC228D
:0C3E3A00EE30E707C3E49FFFE49EFE2289
:10057400EF4E6012EF60010EEDBB010B89828A839E
:10058400F0A3DFFCDEFA2289F05007F709DFFCA9AB
:0C059400F022BBFEFCF309DFFCA9F02202
:00000001FF
