:03000000021F22BA
:0C1F2200787FE4F6D8FD758122021F696B
:02235900C110B1
:101ADB00C288D2B8D2A8D28AD2BAD2AA538E7F5396
:101AEB0089F0758AB0758C3CC28DD2A9D2AF121D0C
:101AFB00677F0612286D121CCA8064D202300C2339
:101B0B003007137D067C007F0C1218769005E8EEEB
:101B1B00F0A3EFF0C2073001E412142F12223BC2E4
:101B2B000180DA30101B300016C210C200121E905A
:101B3B00920812272512223B1227B1C20CC205C2F2
:101B4B00101226EA120016C20430111DC211300504
:101B5B000AC202120E3312223B80F3D204C203D20A
:101B6B0002120E3312223B8092120E331217831283
:071B7B00223B1227DE8084EB
:1026770012285220B20320B40630B20720B404D285
:1026870009800E20B20330B40630B20830B405C258
:072697000912229BC28922F7
:030003000224E3F1
:1024E300C0E0C0F0C083C082C0D075D000C000C0BF
:1024F30001C002C003C004C005C006C0071226778E
:10250300D211D201C203200502D200D007D006D0D7
:1025130005D004D003D002D001D000D0D0D082D0D7
:0625230083D0F0D0E0328D
:03001300021C27A5
:101C2700C0E0C0F0C083C082C0D075D000C000C083
:0D1C370001C002C003C004C005C006C00704
:101C4400C20B1227DE20B35D1227875021B20C305D
:101C54000502C205300C06C28DD28CD207200C06B8
:101C6400C28CC28DD210D211D201D2028037122777
:101C740058500E20052F200C2CD20BB206D2118006
:101C840024300C1D9005AEE004F0E0FF3395E0FE37
:101C9400D3EF9401EE648094804002E4F0D201809A
:0B1CA40004B205D21120B303200BFA9C
:101CAF00D007D006D005D004D003D002D001D00089
:0B1CBF00D0D0D082D083D0F0D0E03233
:03000B0002269E2C
:10269E00C0E0C083C082C0D09005FEE004F0C394B9
:1026AE0028748094804006E4F0D207D201D0D0D0B6
:0626BE0082D083D0E0325F
:082852007F107E93DEFEDFFC27
:01285A00225B
:0A28120000007F9C7ED5DEFEDFFC97
:01281C002299
:0D27DE00007F077E177D69DDFEDEFCDFFA5F
:0127EB0022CB
:1027870000007F3D7EE17D3E30B302C322DDFEDEE9
:04279700F7DFF5D3A0
:01279B00221B
:102758001227DE00007F197E5A7DB020B302D322F3
:07276800DDFEDEF7DFF5C323
:01276F002247
:0E27B10000007F7A7EC17D80DDFEDEFCDFFA57
:0127BF0022F7
:0C27EC007F037E6F7D7CDDFEDEFCDFFAEB
:0127F80022BE
:0A281D0000007FF97E77DEFEDFFC8D
:01282700228E
:08285B007F7C7ECBDEFEDFFC7A
:012863002252
:09283E00007F3E7E74DEFEDFFC2B
:01284700226E
:082864007F197E0DDEFEDFFC92
:01286C002249
:0A28280000007F0C7E95DEFEDFFC51
:012832002283
:0A28330000007F067E59DEFEDFFC88
:01283D002278
:09284800007F027E9CDEFEDFFC35
:012851002264
:040006007F9EDFFEFC
:01000A0022D3
:04000E007F38DFFE5A
:0100120022CB
:042873007F1CDFFEE9
:01287700223E
:02235B00C111AE
:10209B00EFB40C0050569020A8F82828730220CCDF
:1020AB000220CE0220D00220D20220D40220D6025F
:1020BB0020D80220DA0220E20220EA0220F20220DB
:1020CB00F2800C800A8008800680048002800090D9
:1020DB0005F1740FF080159005F1740AF0800D90E6
:1020EB0005F17405F08005E49005F1F09005F1E041
:0A20FB004420F5DE75BC80022812B7
:0526C4009005EAE0FFB3
:1026C900E4F5BDF5BE53BCF0EF42BC43BC4000008D
:1026D900E5BC30E5FB53BCDFAFBDEFFEADBEEDFFA2
:0126E90022CE
:0F27C00090040374FFF0A374FDF0A374F7F022EC
:0B1876009005EAEFF0A3ECF0A3EDF00A
:10188100E4FF12209B7F0F1226C97F0F1226C9E4A5
:101891009005EDF0A3F0FCECC3941074809480509B
:1018A100147F0F1226C99005EEE02FF09005EDE0B0
:1018B1003EF00C80E29005EDE0C4F854F0C868F009
:1018C100A3E0C4540F48F09005EAE0FF1226C9E0F6
:1018D100FF1226C9E49005EFF0A3F0FCECC39410CD
:1018E1007480948050179005EAE0FF1226C9900594
:1018F100F0E02FF09005EFE03EF00C80DF9005EF77
:10190100E0C4F854F0C868F0A3E0C4540F48F012E2
:1019110027C0900403E0FBA3E0FAA3E0F912091C3D
:10192100FFAEF09005EFE0FCA3E0FD120B06A8046A
:10193100A905AA06AB079005EBE0FEA3E0FFE4FCD6
:10194100FD1209ACC006C0079005EDE0FEA3E0FB67
:0C195100AA06E4F9F8D007D006020A3715
:10252900E4FF12209B7F0F1226C97F0F1226C9E4F0
:10253900FBFAFCECC3941074809480500E7F0F1248
:1025490026C9EF2BFBEE3AFA0C80E8EAC4F854F0FE
:0B255900C868FAEBC4540F48AE02FF44
:012564002254
:09052A009005EAEFF0A3EDF0FFEB
:1005330012209B1226C4E0FF1226C9A3E0B40C00CC
:10054300400302084090054FF82828730205730200
:1005530005B30205F30206330206730206B302066D
:10056300ED02072702076102079B0207D502080C69
:10057300E49005ECF09005ECE0C394D27480948091
:1005830040030208401226C49005ECE075F002A473
:100593002406F582E5F03404F583EEF0A3EFF012C0
:1005A30027EC3011030208409005ECE004F080C50D
:1005B300E49005ECF09005ECE0C394D27480948051
:1005C30040030208401226C49005ECE075F002A433
:1005D3002406F582E5F03404F583EEF0A3EFF01280
:1005E300281D3011030208409005ECE004F080C59B
:1005F300E49005ECF09005ECE0C394D27480948011
:1006030040030208401226C49005ECE075F002A4F2
:100613002406F582E5F03404F583EEF0A3EFF0123F
:10062300285B3011030208409005ECE004F080C51C
:10063300E49005ECF09005ECE0C394D274809480D0
:1006430040030208401226C49005ECE075F002A4B2
:100653002406F582E5F03404F583EEF0A3EFF012FF
:10066300283E3011030208409005ECE004F080C5F9
:10067300E49005ECF09005ECE0C394D27480948090
:1006830040030208401226C49005ECE075F002A472
:100693002406F582E5F03404F583EEF0A3EFF012BF
:1006A30028643011030208409005ECE004F080C593
:1006B300E49005ECF09005ECE0C394D27480948050
:1006C30040030208401226C49005ECE075F002A432
:1006D3002406F582E5F03404F583EEF0A3EFF0127F
:1006E30028289005ECE004F080CBE49005ECF09032
:1006F30005ECE0C394D27480948040030208401256
:1007030026C49005ECE075F002A42406F582E5F01A
:100713003404F583EEF0A3EFF01228339005ECE0F8
:1007230004F080CBE49005ECF09005ECE0C394D2A8
:100733007480948040030208401226C49005ECE0C4
:1007430075F002A42406F582E5F03404F583EEF097
:10075300A3EFF01228489005ECE004F080CBE4907E
:1007630005ECF09005ECE0C394D2748094804003D0
:100773000208401226C49005ECE075F002A424069A
:10078300F582E5F03404F583EEF0A3EFF0120006F2
:100793009005ECE004F080CBE49005ECF09005ECE0
:1007A300E0C394D27480948040030208401226C4AC
:1007B3009005ECE075F002A42406F582E5F034041C
:1007C300F583EEF0A3EFF012000E9005ECE004F0D9
:1007D30080CBE49005ECF09005ECE0C394D27480F8
:1007E300948050591226C49005ECE075F002A424BD
:1007F30006F582E5F03404F583EEF0A3EFF012285A
:10080300739005ECE004F080CEE49005ECF09005E5
:10081300ECE0C394D27480948050221226C49005D5
:10082300ECE075F002A42406F582E5F03404F583C8
:10083300EEF0A3EFF09005ECE004F080D17B017AB9
:030843000479062F
:01084600228F
:102451005665637400446F7473003530306D7300DA
:102461003230306D73003130306D730035306D7343
:102471000032306D730031306D7300356D73003291
:102481006D7300316D73003530307573003230304B
:09249100757300313030757300E1
:10235D00C10C4205AC025D4105AA024105AB0AC1A3
:10236D000D4105AE004105B3014405AF245124567E
:10237D005805B4245B24612467246D2472247724CA
:0B238D007C248024842488248E249467
:10256500300A1B9005AAE004F0E0FF3395E0FED3A6
:10257500EF940BEE648094804017740BF022900565
:10258500AAE014F0E03395E0C3648094805002E43F
:02259500F02232
:10259700300A1B9005ABE004F0E0FF3395E0FED373
:1025A700EF940AEE648094804017740AF022900535
:1025B700ABE014F0E03395E0C3648094805002E40C
:0225C700F02200
:10240700300A259005ADE004F070069005ACE004B5
:10241700F0D39005ADE094EE9005ACE0940240292E
:102427007402F0A374EEF0229005ADE024FFF09063
:1024370005ACE034FFF0C3A3E094329005ACE09420
:0A244700005006E4F0A37432F02206
:03288200B20D2272
:10229B00300C1D9005AEE0FF3395E0FEEF4E70075E
:1022AB00A209920A022407EF64014E7041022882B0
:1022BB0030051A9005B3E004F0E0FF3395E0FED350
:1022CB00EF9401EE648094804024E4F0229005B3F7
:1022DB00E0FD3395E0FCED64014C7007A209920A16
:0F22EB00022565ED4C7007A209920A1225972271
:1021D5009005ACE0FEA3E0FFD394EEEE9402500927
:1021E500C3EF9432EE9400500A9005AC7402F0A34C
:1021F5007458F09005AAE0FF3395E0FED3EF940BF9
:10220500EE648094805008C3EE648094805005E4A9
:102215009005AAF09005ABE0FF3395E0FED3EF946F
:102225000AEE648094805008C3EE64809480500563
:06223500E49005ABF0226D
:101E90009005EF7401F0A37405F0A374EAF09005C7
:101EA000ACE0FF9005EFE0FBA3E475F0011209063A
:101EB000A9F0FAEF12088D9005ACA3E0FF9005EFB2
:101EC000E0FBA3E475F001120906A9F0FAEF12088D
:101ED0008DA20DE433FF9005EFE0FBA3E475F00164
:101EE000120906A9F0FAEF12088D9005AAE0FF90FA
:101EF00005EFE0FBA3E475F001120906A9F0FAEF83
:101F000012088D9005ABE0FF9005EFE0FBA3E0FA2F
:101F1000A3E0F9EF12088D7B017A0579EA7D0502CD
:021F2000195D49
:101CCA009005EF7401F0A37405F0A374EAF07B01A8
:101CDA007A05F97D051225C99005EFE0FBA3E475A5
:101CEA00F001120906A9F0FA120847FF9005ACE4C0
:101CFA00F0A3EFF0E0F8E4F0E89005ACF09005EF1F
:101D0A00E0FBA3E475F001120906A9F0FA120847EC
:101D1A00FF9005ACE0F0A3E04FF09005EFE0FBA3E5
:101D2A00E475F001120906A9F0FA12084724FF9295
:101D3A000D9005EFE0FBA3E475F001120906A9F086
:101D4A00FA1208479005AAF09005EFE0FBA3E0FA23
:0D1D5A00A3E0F91208479005ABF00221D577
:100B5F000000000000000000002F00000000070050
:100B6F00070000147F147F1400242A7F2A120062CA
:100B7F006408132300364955225000000503000076
:100B8F0000001C224100000041221C000014083EFE
:100B9F0008140008083E0808000000A060000008C4
:100BAF000808080800006060000000201008040218
:100BBF00003E5149453E0000427F400000426151D6
:100BCF004946002141454B31001814127F10002770
:100BDF0045454539003C4A49493000017109050333
:100BEF0000364949493600064949291E0000363664
:100BFF0000000000563600000008142241000014C7
:100C0F0014141414000041221408000201510906A3
:100C1F0000324959513E007C1211127C007F494924
:100C2F004936003E41414122007F4141221C007F55
:100C3F0049494941007F09090901003E4149497A63
:100C4F00007F0808087F0000417F410000204041DD
:100C5F003F01007F08142241007F40404040007F49
:100C6F00020C027F007F0408107F003E4141413E8D
:100C7F00007F09090906003E4151215E007F0919D5
:100C8F0029460046494949310001017F0101003FD2
:100C9F004040403F001F2040201F003F4038403F52
:100CAF0000631408146300070870080700615149B6
:100CBF00454300007F41410000552A552A55000049
:100CCF0041417F00000402010204004040404040C7
:100CDF00000001020400002054545478007F48445F
:100CEF00443800384444442000384444487F003896
:100CFF005454541800087E0901020018A4A4A47CBF
:100D0F00007F080404780000447D40000040808488
:100D1F007D00007F102844000000417F4000007CD0
:100D2F0004180478007C08040478003844444438DC
:100D3F0000FC242424180018242418FC007C080428
:100D4F00040800485454542000043F444020003C01
:100D5F004040207C001C2040201C003C4030403C88
:100D6F00004428102844001CA0A0A07C0044645418
:100D7F004C440406FFFF06042060FFFF6020183C70
:100D8F007EFF0000202024242424BF642434282440
:100D9F0022202000100804023F45444442424241B1
:100DAF0078000000082848890E8878080800F800A5
:100DBF0000FF0000402010090619600000000F40DE
:100DCF00807F000080642C342424EC322222322EC7
:100DDF0023A260000041219189874D552525554D4E
:100DEF00818080001010FF109000FC041625044431
:100DFF007C00000042827F01001C11111F11115D48
:100E0F0081413F0004A4A4A4BFA4A40448C8487F00
:100E1F0048C8080040CF544424342F2080432C105E
:040E2F002C438000D0
:08239800C10FC18E41000006D7
:10270B00EF4E60157D087C07ED1DAA0470011C4A75
:09271B0070F6EF1F70EA1E80E762
:012724002292
:0525FA001225FFE4FFC3
:1025FF00C2A4C2A3E4FEEEC3940874809480501565
:10260F00C2A7EF30E704D2A68002C2A6D2A7EF2559
:07261F00E0FF0E80E1D2A3F1
:012626002291
:10262700D2A4C2A3E4FEEEC394087480948050152C
:10263700C2A7EF30E704D2A68002C2A6D2A7EF2531
:07264700E0FF0E80E1D2A3C9
:01264E002269
:05287800A208920F22EE
:05287D00A208920E22EA
:06286D00900000EFF022D4
:10264F00AC07900001ECF0A3EDF0131313541F240B
:10265F00B0FF1225FFEC54F0C4540F4410FF1225A5
:08266F00FFEC540FFF0225FFF0
:0F27CF007E047F007D007B017A007903020B33CB
:101FAE00FF9005F5F0FDA3E0FBA3E475F001120927
:041FBE0006A9F0FA86
:101FC2009005FBEBF0A3EAF0A3E9F0300E109005C8
:101FD200FBE0FBA3E0FAA3E0F9300F408023900579
:101FE200FBE0FBA3E0FAA3E0F9300F1E120847FF63
:101FF200EDF45F12088D9005FBE0FBA3E0FAA3E08D
:10200200F9120847FFEDF44F80161208475D1208D7
:102012008D9005FBE0FBA3E0FAA3E0F91208474D1F
:0420220012088D22F1
:0B1567009005F3EDF09005F2EFF0FCB2
:10157200E49005F4F0EB24E0F0900000E0FFC37487
:10158200809FFFECD39F400AE49005F2F0A3E02491
:1015920008F09005F3E0131313541F75F080A4FFB5
:1015A2009005F2E07C002FFFEC35F0FE74032FF97A
:1015B20074003EFA9005F67401F0A3EAF0A3E9F094
:1015C200E4FE900000E0FFEEC39F50359005F4E08A
:1015D20075F006A4245FF582E5F0340BF583E5820D
:1015E2002EF582E43583F583E493FF9005F3E0540E
:1015F20007FDF8EF088002C333D8FC121FAE0E803D
:10160200C19005F3E0FF5407607BEFC39438748008
:1016120094805071E0131313541F75F080A4FF904F
:1016220005F2E07C002FFFEC35F0FE74832FF97495
:10163200003EFA9005F67401F0A3EAF0A3E9F0E4A3
:10164200FE900000E0FFEEC39F503A9005F4E07573
:10165200F006A4245FF582E5F0340BF583E5822ED3
:10166200F582E43583F583E493FF9005F3E05407B4
:10167200FDC374089DFDF8EF088002C313D8FC1265
:051682001FAE0E80BC4C
:011687002240
:10216E009005EEEBF0A3EAF0A3E9F09005EEE0FBAC
:10217E00A3E0FAA3E0F9120847604B900001E0FFDC
:10218E00A3E0FD9005EEA3E475F001120906A9F097
:10219E00FA120847FB121567900000E0FFA3E02F2C
:1021AE00F0C374809FFFE49400FEE0FD3395E0FCE5
:1021BE00D3ED9FEE6480F8EC64809840AEE4F0A31B
:0721CE00E02408F080A522C7
:08249A009005F2EFF0A3EDF054
:1024A200A3120AD5000000019005F3E0FF14F0EF3B
:1024B2006020A3E0F8A3E0F9A3E0FAA3E0FB900513
:1024C200F2E0FFE4FCFDFE1209AC9005F4120AC929
:1024D20080D69005F4E0FCA3E0FDA3E0FEA3E0FFBC
:0124E20022D7
:061B82009005EA120AC9F9
:101B8800E49005F1F09005EFF09005EEE0FFA3E09A
:101B9800FEC39F4003021C26C3EF9E14FD7F0A125A
:101BA800249AA804A905AA06AB079005EAE0FCA3B5
:101BB800E0FDA3E0FEA3E0FF120A37E47B0AFAF98E
:101BC800F8120A379005F0EBF0A3E0702A9005EEC2
:101BD800E014FFA3E0FEC39F501DA3E07013900024
:101BE80000E08EF0A4FFA3E02FFFA3E0FD7B2080A0
:101BF800219005F17401F09005EFE0FF900000E0FE
:101C08008FF0A4FFA3E02FFFA3E0FD9005F0E024F0
:0E1C180030FB1215679005EFE004F0021B91FF
:011C2600229B
:0A10D8009005EAEFF09005ECEBF054
:0C10E200E49005F3F0A3F0EFD39B401660
:1010EE009005EAE0FF9005FAF09005ECE09005EA35
:0610FE00F09005ECEFF09C
:0A1104009005EDE0FFEDD39F400BD6
:0B110E009005FAEDF0AD079005EDF044
:101119009005ECE0D3947F748094804003747FF051
:101129009005EDE0D3943F748094804003743FF0C0
:101139009005F6EDF09005EDE0FF9005F6E0D39F00
:1011490040030212A39005EAE09005F5F09005EC42
:10115900E0FF9005F5E0FDD39F4003021299900549
:10116900F2E024FFFF9005F1E034FFFED39005F48F
:10117900E09F9005F3E09E40030212999005F6E086
:10118900131313541F75F080A47C002DFFEC35F068
:10119900FE74032FF974003EFAA37401F0A3EAF078
:1011A900A3E9F09005EEE0FBA3E0FAA3E0F99005CE
:1011B900F3E475F00112090685F082F583120860DF
:1011C900FF9005F6E05407FEF8EF088002C333D814
:1011D900FCFE9005F7E0FBA3E475F001120906A9EE
:1011E900F0FAAD06121FC29005F6E0FF540770032E
:1011F900021290EFC39438748094804003021290D5
:101209009005F4E024FFF09005F3E034FFF0900539
:10121900F6E0131313541F75F080A4FF9005F5E051
:101229007C002FFFEC35F0FE74832FF974003EFA31
:101239009005F77401F0A3EAF0A3E9F09005EEE058
:10124900FBA3E0FAA3E0F99005F3E475F0011209B4
:101259000685F082F583120860FF9005F6E05407D1
:10126900FEC374089EFEF8EF088002C313D8FCFE83
:101279009005F7E0FBA3E475F001120906A9F0FA5D
:10128900AF06AD07121FC29005F5E004F002115632
:0A1299009005F6E02408F002113E73
:0112A3002228
:1022FA00900001E0FD3395E0FCD3ED9470EC64802E
:10230A0094804007E4F0A3E02410F0EF75F020A4D5
:10231A002493F9740D35F0FA9005EE74FFF0A3EAF0
:10232A00F0A3E9F0900001E0FFC007A3E0FDEF246D
:10233A000FFBED240F9005EDF09005F1E4F0A37486
:0F234A0020F0D0071210D8900001E02410F022EC
:0723B1009005F5EDF0AC070B
:1023B800E0131313541F75F080A4AD047C002DFFA7
:1023C800EC35F0FE74032FF974003EFAA37401F0A3
:1023D800A3EAF0A3E9F09005F5E05407FFF87401CB
:1023E800088002C333D8FCFF9005F6E0FBA3E47530
:0F23F800F001120906A9F0FA1208474F02088DEA
:0D12A4009005ECEDF0A3EBF09005EBEFF002
:1012B100C208D3947F748094804003747FF09005BA
:1012C100ECE0D3943F748094804003743FF0900528
:1012D100EDE0D3947F748094804003747FF0900597
:1012E100EEE0D3943F748094804003743FF0900506
:1012F100EBE0FF9005EDE0C39FFFE49400FE1228B0
:10130100069005EFEFF09005ECE0FF9005EEE0C3ED
:101311009FFFE49400FE1228069005F0EFF090057F
:0F132100EFE0FED36480F8EF6480984038D20884
:101330009005F4EEF09005F0E09005EFF0A3EEF0EC
:101340009005EBE0FF9005F4F09005ECE09005EBE4
:04135000F0A3EFF027
:10135400A3E0FF9005F4F09005EEE09005EDF0A316
:02136400EFF0A8
:0E1366009005EDE0FF9005EBE0FED39F4025E3
:0F1374009005F4EEF09005EBEFF09005EDEEF044
:101383009005ECE0FF9005F4F09005EEE09005EC9D
:06139300F09005EEEFF002
:101399009005EFE0A2E713FE3395E09005F2F0A384
:1013A900CEF09005EEE0FF9005ECE0C39F9005F1CB
:1013B90050057401F0800374FFF09005EDE0FE9094
:1013C90005EBE0FFD39E505D200803A3800890053C
:1013D900ECE0FF9005EBE0FD1223B19005F0E0FF92
:1013E9003395E0FEC39005F3E09FFF9005F2E09E80
:1013F900FEF0A3EFF0C3EE6480948050209005F1D5
:10140900E0FF9005ECE02FF09005EFE0FF3395E069
:10141900FE9005F3E02FF09005F2E03EF09005EB29
:05142900E004F08095D5
:01142E00229B
:0B2026009005EEEFF0A3EDF0A3EBF04F
:102031009005F0E0FF14F0EF605F9005EFE01313FF
:1020410013541F75F080A4FF9005EEE07C002FFF74
:10205100EC35F0FE74032FF974003EFA9005F1742B
:1020610001F0A3EAF0A3E9F09005EFE05407FFF8CF
:102071007401088002C333D8FCFF9005F1E0FBA393
:10208100E475F001120906A9F0FA1208474F120887
:092091008D9005EFE004F080974A
:01209A002223
:0A2105009005EEEDF0A3EBF0AC073F
:10210F009005EEE0131313541F75F080A4AD047CFB
:10211F00002DFFEC35F0FE74032FF974003EFA909A
:10212F0005F07401F0A3EAF0A3E9F09005EEE05496
:10213F0007FFF87401088002C333D8FCFF9005EF46
:10214F00E0FE14F0EE6017A3E0FBA3E475F00112BC
:0E215F000906A9F0FA1208474F12088D80DF1A
:01216D00224F
:10223B007FB01225FA7F101225FF9005EB7401F089
:10224B00A37400F0A37403F0E49005EAF09005EAA0
:10225B00E0FDC39440748094805034E4FF12264F09
:10226B00E4FDEDC3948074809480501A9005EBE0EC
:10227B00FBA3E475F001120906A9F0FA120847FF57
:0F228B001226270D80DC9005EAE02408F080BEC3
:01229A002221
:101D6700D2A57F647E0012270BC2A57F647E001276
:101D7700270BD2A57FAE1225FA7F101225FF7F40D1
:101D87001225FF7FB01225FF7F811225FF7FFE12EC
:101D970025FF7FA11225FF7FA61225FF7FC81225E9
:101DA700FF7FA61225FF7FA81225FF7F3F1225FF81
:101DB7007FD31225FA7FD51225FF7F801225FF7F5B
:101DC700D91225FF7FF11225FF7FDA1225FF7F1237
:101DD7001225FF7FDB1225FF7F301225FF7F2012A0
:101DE70025FA7F8D1225FF7F141225FF7FA4122568
:061DF700FF7FAF0225FF93
:0D27F900E4F5C7F5C5F5C675C380F5C4222B
:1027700075C78175C5018FC4EEF5C375C65A75C698
:07278000A500AFC20227F91A
:10273F0075C78175C5028FC4EEF5C3AF058FC2751E
:09274F00C65A75C6A5000227F95F
:10279C0075C78175C5038FC4EEF5C375C65A75C66A
:0527AC00A5000227F961
:0E195D009005F2EBF0A3EAF0A3E9F0A3EDF0A1
:10196B00E4FFFE12279CE4A3F0A3F09005F6E0FE43
:10197B00A3E0FFC3EE648094825019122770EFF43A
:10198B006002C3229005F7E004F070DF9005F6E0EB
:10199B0004F080D7E49005F6F0A3F09005F5E0FD98
:1019AB00A3E0FEA3E0FFC39D7480F8EE6480985023
:1019BB00269005F2E0FBA3E0FAA3E0F98F828E8379
:1019CB00120860FD12273F9005F7E004F070CC90F1
:1019DB0005F6E004F080C4E49005F6F0A3F0900562
:1019EB00F5E0FDA3E0FEA3E0FFC39D7480F8EE6479
:1019FB00809850311227709005F2E0FBA3E0FAA318
:101A0B00E0F99005F6E0FCA3E0F5828C8312086008
:101A1B006F6002C3229005F7E004F070C19005F6E9
:061A2B00E004F080B9D3D5
:011A31002292
:0B25C9009005F2EBF0A3EAF0A3E9F0AC
:1025D400E4FCECC39D501EECFF7E001227709005B6
:1025E400F2E0FBA3E475F001120906A9F0FAEF1278
:0525F400088D0C80DDE4
:0125F90022BF
:101688002D0056005472692E004661696C002000D6
:1016980041002020202020002020202000576169C0
:1016A8007400480042792043726561746976652048
:1016B8004C617500566261743D004C53423D004DCB
:1016C8006F64653D005361766564004661696C65C9
:1016D80064205361766500FFFF0303EF1FEF0303E8
:1016E800FFFFFFFFFFFB0303FBFFFFFFFFFFFF03FE
:1016F80003CF9F3F0303FFFFFFFFFFFB0303FBFF36
:10170800FFFFFFFFFFFFFFFFFFFF0303FBF3070FD1
:10171800FFFFFFFFFFE7C39B3B73F7FFFFFFFFFFE1
:101728000703FBFB0307FFFFFF1F1F18181F1F1FDF
:1017380018181F1F1F1F1F1B18181B1F1F1F1F1FD5
:101748001F18181F1F1F18181F1F1F1F1F1B1818CF
:101758001B1F1F1F1F1F1F1F1F1F1F1F18181B19AD
:101768001C1E1F1F1F1F1F1D191B1B181C1F1F1F9F
:0B1778001F1F1C181B1B181C1F1F1F2D
:1023A000C186C105C101C100C102C184C107C10309
:1026EA009005AAE0FD7F0E12052A9005D1EBF0A312
:1026FA00EAF0A3E9F01225299005D4EEF0A3EFF051
:01270A0022AC
:051DFD00E0FEA3E0FF81
:041E0200AB07AA067A
:101E0600C3EB9410EA942750337C037DE81208B1A3
:101E1600EF24309005CCF0A3742EF07C007D64AFE7
:101E260003AE021208B17C007D0A1208B1ED24301F
:101E3600A3F07C007D0AAF03AE0280357C277D10BF
:101E4600AF03AE021208B1EF24309005CCF07C034C
:101E56007DE8AF03AE021208B17C007D0A1208B11C
:101E6600ED2430A3F0A3742EF0AE02AF037C007D08
:101E7600641208B17C007D0A1208B1ED2430A3F08B
:091E8600E4A3F07B017A0579CC9C
:011E8F002230
:100E3300200203020F601227CFC2027B04E4FD7F6E
:100E43001A1221057B047D357F1A1221057B04E4E8
:100E5300FD7F7B1221057B047D357F7B1221057B82
:100E630036E4FD7F191220267B36E4FD7F7F1220B6
:100E730026E49005EAF09005EAE0FFC3941174803C
:100E830094805017EF75F006A4241CFF7B027D1A93
:100E93001221059005EAE004F080DBE49005EAF016
:100EA3009005EAE0FFC3940974809480503BEF758A
:100EB300F006A42402FD7B027F331220269005EA6C
:100EC300E075F006A42402FD7B027F4C12202690DD
:100ED30005EAE075F006A42402FD7B027F6512207B
:100EE300269005EAE004F080B73006047B7B80029D
:100EF3007B7C7D387F121215677D387F1A12264F4F
:100F03009005D6121DFD9005EBEBF0A3EAF0A3E9E3
:100F1300F012216E7BFF7A16798812216E9005D824
:100F2300121DFD9005EBEBF0A3EAF0A3E9F012210B
:100F33006E7BFF7A16798A12216E3003207D10E4CE
:100F4300FF12264F7BFF7A16798C12216E7D18E4EF
:100F5300FF12264F7BFF7A16799112216E30051A04
:100F6300D20812287D7D387F0812264F7BFF7A1620
:100F7300799612216EC20812287D9005ABE0FF33EB
:100F830095E0FEEF4E70107D387F0812264F7BFFF1
:100F93007A16799812216E30051AD20812287D7DAF
:100FA300387F6112264F7BFF7A16799A12216EC21F
:100FB3000812287D9005B3E0FF3395E0FEEF64014E
:100FC3004E7005D2081228787D387F6112264F9023
:100FD30005AAE0FF3395E0FEEF25E0FFEE33FE7454
:100FE300B42FF58274053EF583E0FEA3E0AA06F96B
:100FF3007BFF12216EC208122878300519D208121D
:10100300287DE4FDFF12264F7BFF7A1679A012217B
:101013006EC20812287D9005B3E0FF3395E0FEEF22
:101023004E7005D2081228789005DE121DFD90053A
:10103300EBEBF0A3EAF0A3E9F0E4FDFF12264F90F7
:1010430005EBE0FBA3E0FAA3E0F912216EC208125C
:1010530028789005DC121DFD9005EBEBF0A3EAF078
:10106300A3E9F07D2DE4FF12264F9005EBE0FBA3EF
:10107300E0FAA3E0F912216E3004127D08E4FF12B6
:10108300264F7BFF7A1679A512216E801AC20812A9
:10109300287D7D08E4FF12264F7BFF7A1679A01284
:1010A300216ED20812287D3005107D38E4FF122608
:1010B3004F7BFF7A1679AA02216EC20812287D7D22
:1010C30038E4FF12264F7BFF7A16799612216ED2EF
:0410D3000812287D5A
:0110D70022F6
:10178300300D0302181BE49005EAF09005EAE0C36C
:10179300946474809480400302181B9005DBE02559
:1017A300E0FF9005DAE033FE9005D1E0FBA3E0FA19
:1017B300A3E02FF9EA3EFAE9249CF9EA34FFFA9010
:1017C30005EAE0FC75F002A4F58285F0831209476F
:1017D300FD9005DBE025E0FF9005DAE033FE9005A0
:1017E300D1A3E0FAA3E02FF9EA3EFAEC75F002A4E4
:1017F30029F9EA35F0FA90FF9E1209479005EEF0B9
:101803009005EAE0FE241AFFEE241BFB1212A490BB
:1018130005EAE004F002178E300D57E49005EAF074
:101823009005EAE0D394647480948050459005DB7E
:10183300E025E0FF9005DAE033FE9005D1E0FBA35D
:10184300E0FAA3E02FF9EA3EFAE9249CF9EA34FF2F
:10185300FA9005EAE0FF75F002A4F58285F08312A1
:101863000947FDEF241AFF1223B19005EAE004F0C3
:0218730080AE45
:011875002250
:10142F003002571227CFC2029005ED7424F0A37437
:10143F00FFF0A37416F0A374DFF0A3E4F0A374A479
:10144F00F07B697D187F181210D87D277F1E12261A
:10145F004F7BFF7A1679AC12216E7D307F2C1226CE
:10146F004FE4FF1222FA7F011222FA7F021222FAB0
:10147F007F031222FA7F041222FAE4FD7F40122624
:10148F004F7BFF7A1679BC12216EC20812287D900D
:10149F0005E8121DFD12216ED20812287D7BFF7AFE
:1014AF0016798A12216EE4FDFF12264F7BFF7A1602
:1014BF0079C212216EC20812287D9005ACE0FEA3FE
:1014CF00E0FFE4FCFD9005EE7403F0121B82D208DE
:1014DF0012287D7D0CE4FF12264F7BFF7A1679C709
:1014EF0012216EC20812287DA20DE43325E0FFE41D
:1014FF0033FE74AF2FF58274053EF583E0FEA3E053
:10150F00AA06F97BFF12216ED20812287D9005AE34
:10151F00E0FF3395E0FEEF4E7012C20812287D7B7C
:10152F007DE4FD7F2C1215677B20801F9005AEE0B8
:10153F00FF3395E0FEEF64014E701CC20812287D48
:10154F007B20E4FD7F2C1215677B7D7D0C7F38128D
:08155F001567D20812287D2255
:101A32009005ECEEF0A3EFF0A3ECF0A3EDF0A3EA37
:101A4200F0A3EBF09005EEE0FEA3E0FF9005ECE0E2
:101A5200FCA3E0FDD39FEC9E4002800F9005F0E0D6
:101A6200FEA3E0FFC3ED9FEC9E50089005ECEEF064
:101A7200A3EFF09005ECE0FEA3E0FFC39005EFE0DA
:101A82009FFF9005EEE09EFE9005F4E0FCA3E0FDD2
:101A9200C39005F3E09DFD9005F2E09CFC120B065D
:101AA200C006C0079005F0E0FEA3E0FFC39005EF7B
:101AB200E09FFF9005EEE09EAB07FAE4F9F8D0074D
:101AC200D006120A379005F5E02FFF9005F4E03EAC
:091AD200FE9005ECF0A3EFF022F8
:10001600E49005E6F0A3F09005E4740FF0A374FFF6
:10002600F0E49005EAF0A3F09005EAE0FEA3E0FF15
:10003600C394D2EE9400504DEF25E0FFEE33FE90D0
:1000460005D1E0FBA3E0FAA3E0F98F828E831209C3
:1000560047FFAEF0C39005E7E09F9005E6E09E50AF
:1000660002800DD39005E5E09F9005E4E09E4005F3
:10007600EEF0A3EFF09005EBE004F070AB9005EA2C
:10008600E004F080A31227C0900403E0FBA3E0FA8B
:10009600A3E0F912091CFFAEF09005E6E0FCA3E030
:1000A600FD120B06A804A905AA06AB079005ACE04D
:1000B600FEA3E0FFE4FCFD1209ACC006C0079005F4
:1000C600D4E0FEA3E0FBAA06E4F9F8D007D00612B6
:1000D6000A37E47B64FAF9F8120A379005D8EEF08D
:1000E600A3EFF0900403E0FBA3E0FAA3E0F9120902
:1000F6001CFFAEF09005E4E0FCA3E0FD120B06A8A1
:1001060004A905AA06AB079005ACE0FEA3E0FFE450
:10011600FCFD1209ACC006C0079005D4E0FEA3E0C2
:10012600FBAA06E4F9F8D007D006120A37E47B6486
:10013600FAF9F8120A379005D6EEF0A3EFF090051B
:10014600ABE0FF3395E0FEEF4E600302023D900503
:10015600D8E0FAA3E0FB7C007D64FFAE021208B192
:100166007C007D0A1208B1C3ED9405EC9400401C96
:10017600EB24F4FFEA3401FE7C037DE81208B17C2F
:10018600037DE812089F9005DEEE80209005D8E0FA
:10019600FEA3E0FF7C037DE81208B17C037DE81234
:1001A600089FEF24F4FFEE34019005DEF0A3EFF094
:1001B6009005D6E0FAA3E0FB7C007D64FFAE021258
:1001C60008B17C007D0A1208B1C3ED9405EC9400D9
:1001D600401E7C037DE8AF03AE021208B17C037DAE
:1001E600E812089FEF24F4FFEE34019005DC801A34
:1001F6009005D6E0FEA3E0FF7C037DE81208B17C03
:10020600037DE812089F9005DCEEF0A3EFF0D39093
:1002160005DFE094309005DEE0947540077475F0D4
:10022600A37430F0C39005DCE0940040030202F2B0
:10023600E4F0A3F00202F2E49005DCF0A3F09005EE
:10024600ABE014B40A0040030202F290025F75F0BC
:1002560003A4C58325F0C5837302027D02028802CA
:1002660002940202A00202AC0202B80202C4020216
:10027600D00202DC0202E89005DEE4F0A374C8F0C6
:10028600806A9005DE7401F0A374F4F0805E900538
:10029600DE7403F0A374E8F080529005DE7407F074
:1002A600A374D0F080469005DE7413F0A37488F032
:1002B600803A9005DE7427F0A37410F0802E900526
:1002C600DE743AF0A37498F080229005DE744EF046
:1002D600A37420F080169005DE7461F0A374A8F074
:1002E600800A9005DE7475F0A37430F09005DEE0A8
:1002F600FEA3E0FF9005D4E0FCA3E0FD120B06E4AC
:100306007B64FAF9F81209ACC006C007900403E052
:10031600FBA3E0FAA3E0F912091CAEF0FBAA06E47F
:10032600F9F8D007D006120A37C006C0079005AC08
:10033600E0FEA3E0FBAA06E4F9F8D007D006120A0D
:10034600379005E2EEF0A3EFF09005DCE0FEA3E0C7
:10035600FF9005D4E0FCA3E0FD120B06E47B64FAF3
:10036600F9F81209ACC006C007900403E0FBA3E04D
:10037600FAA3E0F912091CAEF0FBAA06E4F9F8D0DC
:1003860007D006120A37C006C0079005ACE0FEA3E8
:10039600E0FBAA06E4F9F8D007D006120A37900562
:1003A600E0EEF0A3EFF09005E4E0FEA3E0FF900599
:1003B600E7E02FFF9005E6E03EC313FEEF13FDAC2A
:1003C600069005DAE4F0A37469F0D2039005EAE436
:1003D600F0A37432F09005EAE0FEA3E0FFD394A008
:1003E600EE9400400302049D300642EF25E0FFEE46
:1003F60033FE9005D1E0FBA3E0FAA3E0F98F828EED
:1004060083120947D39DE5F09C507B9005EBE025D0
:10041600E0FF9005EAE033FEE92FF9EA3EFA9000A4
:1004260002120947C39DE5F09C405B80469005EBB0
:10043600E025E0FF9005EAE033FE9005D1E0FBA35E
:10044600E0FAA3E0F98F828E83120947C39DE5F097
:100456009C40339005EBE025E0FF9005EAE033FE93
:10046600E92FF9EA3EFA900002120947D39DE5F01A
:100476009C50139005EAE0FFA3E09005DACFF0A3C5
:10048600EFF0C20380119005EBE004F070069005D2
:10049600EAE004F00203DBE49005EAF0A3F090053D
:1004A600EAE0FEA3E0FFC394D2EE94005075EF2578
:1004B600E0FFEE33FE9005D1E0FBA3E0FAA3E0F9FE
:1004C6008F828E83120947FFAEF09005E2E0FCA30F
:1004D600E0FD9005E0E0FAA3E0FB9005F2E4F0A36E
:1004E6007434F0A3E4F0A304F0121A32AC06AD079C
:1004F6009005EBE025E0FF9005EAE033FE9005D19C
:10050600E0FBA3E0FAA3E0F98F828E83EC8DF01274
:10051600097F9005EBE004F070849005EAE004F0B2
:030526000204A428
:0105290022AF
:102725007D0C7F3E12264F7BFF3008067A1679CD49
:0A27350080047A1679D312216E2277
:101F2E00021ADBE493A3F8E493A34003F68001F2D4
:101F3E0008DFF48029E493A3F85407240CC8C333B4
:101F4E00C4540F4420C8834004F456800146F6DF83
:101F5E00E4800B0102040810204080902359E47E97
:101F6E00019360BCA3FF543F30E509541FFEE49378
:101F7E00A360010ECF54C025E060A840B8E493A33F
:101F8E00FAE493A3F8E493A3C8C582C8CAC583CA6A
:101F9E00F0A3C8C582C8CAC583CADFE9DEE780BE22
:0123B000002C
:10084700BB010689828A83E0225002E722BBFE02AF
:09085700E32289828A83E49322E2
:10086000BB010CE58229F582E5833AF583E022504D
:1008700006E92582F8E622BBFE06E92582F8E22297
:0D088000E58229F582E5833AF583E49322B1
:10088D00BB010689828A83F0225002F722BBFE014A
:02089D00F32244
:10089F00EF8DF0A4A8F0CF8CF0A428CE8DF0A42E6D
:0208AF00FE2227
:1008B100BC000BBE0029EF8DF084FFADF022E4CC2B
:1008C100F875F008EF2FFFEE33FEEC33FCEE9DECF4
:1008D100984005FCEE9DFE0FD5F0E9E4CEFD22ED3A
:1008E100F8F5F0EE8420D21CFEADF075F008EF2F84
:1008F100FFED33FD4007985006D5F0F222C398FD75
:050901000FD5F0EA2211
:10090600A3F8E0C5F025F0F0E582158270021583A4
:06091600E0C838F0E82201
:10091C00BB010A89828A83E0F5F0A3E022500687A6
:10092C00F009E71922BBFE07E3F5F009E319228968
:0B093C00828A83E493F5F0740193229B
:10094700BB0110E58229F582E5833AF583E0F5F0EE
:10095700A3E0225009E92582F886F008E622BBFECB
:100967000AE92582F8E2F5F008E222E5832AF58311
:08097700E993F5F0A3E99322D6
:10097F00F8BB0111E58229F582E5833AF583E8F0AA
:10098F00E5F0A3F0225009E92582C8F608A6F02267
:0D099F00BBFE09E92582C8F2E5F008F2224E
:1009AC00E88FF0A4CC8BF0A42CFCE98EF0A42CFCEA
:1009BC008AF0EDA42CFCEA8EF0A4CDA8F08BF0A468
:1009CC002DCC3825F0FDE98FF0A42CCD35F0FCEBC7
:1009DC008EF0A4FEA9F0EB8FF0A4CFC5F02ECD398C
:0F09EC00FEE43CFCEAA42DCE35F0FDE43CFC22F9
:1009FB0075F008758200EF2FFFEE33FECD33CDCCB3
:100A0B0033CCC58233C5829BED9AEC99E582984035
:100A1B000CF582EE9BFEED9AFDEC99FC0FD5F0D612
:100A2B00E4CEFBE4CDFAE4CCF9A88222B800C1B93C
:100A3B000059BA002DEC8BF084CFCECDFCE5F0CB7A
:100A4B00F97818EF2FFFEE33FEED33FDEC33FCEBB3
:100A5B0033FB10D703994004EB99FB0FD8E5E4F96E
:100A6B00FA227818EF2FFFEE33FEED33FDEC33FC5B
:100A7B00C933C910D7059BE99A4007EC9BFCE99A4F
:100A8B00F90FD8E0E4C9FAE4CCFB2275F010EF2F94
:100A9B00FFEE33FEED33FDCC33CCC833C810D70794
:100AAB009BEC9AE899400AED9BFDEC9AFCE899F8CF
:0E0ABB000FD5F0DAE4CDFBE4CCFAE4C8F92262
:0C0AC900ECF0A3EDF0A3EEF0A3EFF022A0
:100AD500A8828583F0D083D082120AEC120AEC1228
:100AE5000AEC120AECE473E493A3C583C5F0C5834D
:100AF500C8C582C8F0A3C583C5F0C583C8C582C86B
:010B050022CD
:100B0600EC8EF0A4CCC5F0CCCDF8EFA4CEC5F02D7C
:100B1600FDE43CFCE8A42EC8C5F03DFDE43CFCEF3A
:0D0B2600A4FFE5F028FEE43DFDE43CFC22C8
:0C280600EE30E707C3E49FFFE49EFE22D3
:100B3300EF4E6012EF60010EEDBB010B89828A83D9
:100B4300F0A3DFFCDEFA2289F05007F709DFFCA9E6
:0C0B5300F022BBFEFCF309DFFCA9F0223D
:00000001FF
